{
  "contractName": "TrustFeedMintedCrowdsale",
  "abi": [
    {
      "constant": true,
      "inputs": [],
      "name": "hasClosed",
      "outputs": [
        {
          "name": "",
          "type": "bool"
        }
      ],
      "payable": false,
      "stateMutability": "view",
      "type": "function"
    },
    {
      "constant": true,
      "inputs": [],
      "name": "rate",
      "outputs": [
        {
          "name": "",
          "type": "uint256"
        }
      ],
      "payable": false,
      "stateMutability": "view",
      "type": "function"
    },
    {
      "constant": true,
      "inputs": [],
      "name": "cap",
      "outputs": [
        {
          "name": "",
          "type": "uint256"
        }
      ],
      "payable": false,
      "stateMutability": "view",
      "type": "function"
    },
    {
      "constant": true,
      "inputs": [],
      "name": "goal",
      "outputs": [
        {
          "name": "",
          "type": "uint256"
        }
      ],
      "payable": false,
      "stateMutability": "view",
      "type": "function"
    },
    {
      "constant": true,
      "inputs": [],
      "name": "weiRaised",
      "outputs": [
        {
          "name": "",
          "type": "uint256"
        }
      ],
      "payable": false,
      "stateMutability": "view",
      "type": "function"
    },
    {
      "constant": true,
      "inputs": [],
      "name": "closingTime",
      "outputs": [
        {
          "name": "",
          "type": "uint256"
        }
      ],
      "payable": false,
      "stateMutability": "view",
      "type": "function"
    },
    {
      "constant": false,
      "inputs": [],
      "name": "finalize",
      "outputs": [],
      "payable": false,
      "stateMutability": "nonpayable",
      "type": "function"
    },
    {
      "constant": true,
      "inputs": [],
      "name": "capReached",
      "outputs": [
        {
          "name": "",
          "type": "bool"
        }
      ],
      "payable": false,
      "stateMutability": "view",
      "type": "function"
    },
    {
      "constant": true,
      "inputs": [],
      "name": "wallet",
      "outputs": [
        {
          "name": "",
          "type": "address"
        }
      ],
      "payable": false,
      "stateMutability": "view",
      "type": "function"
    },
    {
      "constant": false,
      "inputs": [],
      "name": "renounceOwnership",
      "outputs": [],
      "payable": false,
      "stateMutability": "nonpayable",
      "type": "function"
    },
    {
      "constant": true,
      "inputs": [],
      "name": "goalReached",
      "outputs": [
        {
          "name": "",
          "type": "bool"
        }
      ],
      "payable": false,
      "stateMutability": "view",
      "type": "function"
    },
    {
      "constant": true,
      "inputs": [],
      "name": "isFinalized",
      "outputs": [
        {
          "name": "",
          "type": "bool"
        }
      ],
      "payable": false,
      "stateMutability": "view",
      "type": "function"
    },
    {
      "constant": true,
      "inputs": [],
      "name": "owner",
      "outputs": [
        {
          "name": "",
          "type": "address"
        }
      ],
      "payable": false,
      "stateMutability": "view",
      "type": "function"
    },
    {
      "constant": false,
      "inputs": [],
      "name": "claimRefund",
      "outputs": [],
      "payable": false,
      "stateMutability": "nonpayable",
      "type": "function"
    },
    {
      "constant": true,
      "inputs": [],
      "name": "openingTime",
      "outputs": [
        {
          "name": "",
          "type": "uint256"
        }
      ],
      "payable": false,
      "stateMutability": "view",
      "type": "function"
    },
    {
      "constant": false,
      "inputs": [
        {
          "name": "_beneficiary",
          "type": "address"
        }
      ],
      "name": "buyTokens",
      "outputs": [],
      "payable": true,
      "stateMutability": "payable",
      "type": "function"
    },
    {
      "constant": false,
      "inputs": [
        {
          "name": "_newOwner",
          "type": "address"
        }
      ],
      "name": "transferOwnership",
      "outputs": [],
      "payable": false,
      "stateMutability": "nonpayable",
      "type": "function"
    },
    {
      "constant": true,
      "inputs": [],
      "name": "token",
      "outputs": [
        {
          "name": "",
          "type": "address"
        }
      ],
      "payable": false,
      "stateMutability": "view",
      "type": "function"
    },
    {
      "inputs": [
        {
          "name": "_openingTime",
          "type": "uint256"
        },
        {
          "name": "_closingTime",
          "type": "uint256"
        },
        {
          "name": "_rate",
          "type": "uint256"
        },
        {
          "name": "_wallet",
          "type": "address"
        },
        {
          "name": "_cap",
          "type": "uint256"
        },
        {
          "name": "_token",
          "type": "address"
        },
        {
          "name": "_goal",
          "type": "uint256"
        }
      ],
      "payable": false,
      "stateMutability": "nonpayable",
      "type": "constructor"
    },
    {
      "payable": true,
      "stateMutability": "payable",
      "type": "fallback"
    },
    {
      "anonymous": false,
      "inputs": [],
      "name": "Finalized",
      "type": "event"
    },
    {
      "anonymous": false,
      "inputs": [
        {
          "indexed": true,
          "name": "purchaser",
          "type": "address"
        },
        {
          "indexed": true,
          "name": "beneficiary",
          "type": "address"
        },
        {
          "indexed": false,
          "name": "value",
          "type": "uint256"
        },
        {
          "indexed": false,
          "name": "amount",
          "type": "uint256"
        }
      ],
      "name": "TokenPurchase",
      "type": "event"
    },
    {
      "anonymous": false,
      "inputs": [
        {
          "indexed": true,
          "name": "previousOwner",
          "type": "address"
        }
      ],
      "name": "OwnershipRenounced",
      "type": "event"
    },
    {
      "anonymous": false,
      "inputs": [
        {
          "indexed": true,
          "name": "previousOwner",
          "type": "address"
        },
        {
          "indexed": true,
          "name": "newOwner",
          "type": "address"
        }
      ],
      "name": "OwnershipTransferred",
      "type": "event"
    }
  ],
  "bytecode": "0x60806040526008805460ff1916905534801561001a57600080fd5b5060405160e0806115b483398101604090815281516020830151918301516060840151608085015160a086015160c09096015160008054600160a060020a0319163317815594969394929391928190849089908990899089908890831161008057600080fd5b600160a060020a038216151561009557600080fd5b600160a060020a03811615156100aa57600080fd5b60039290925560028054600160a060020a03928316600160a060020a03199182161790915560018054929093169116179055428210156100e957600080fd5b818110156100f657600080fd5b6005919091556006556000811161010c57600080fd5b6007556000811161011c57600080fd5b600254600160a060020a031661013061019a565b600160a060020a03909116815260405190819003602001906000f08015801561015d573d6000803e3d6000fd5b50600a8054600160a060020a031916600160a060020a03929092169190911790556009558281111561018e57600080fd5b505050505050506101aa565b6040516108b280610d0283390190565b610b49806101b96000396000f3006080604052600436106100fb5763ffffffff7c01000000000000000000000000000000000000000000000000000000006000350416631515bc2b81146101065780632c4e722e1461012f578063355274ea14610156578063401938831461016b5780634042b66f146101805780634b6753bc146101955780634bb278f3146101aa5780634f935945146101bf578063521eb273146101d4578063715018a6146102125780637d3d6522146102275780638d4e40831461023c5780638da5cb5b14610251578063b5545a3c14610266578063b7a8807c1461027b578063ec8ac4d814610290578063f2fde38b146102b1578063fc0c546a146102df575b610104336102f4565b005b34801561011257600080fd5b5061011b6103a3565b604080519115158252519081900360200190f35b34801561013b57600080fd5b506101446103ab565b60408051918252519081900360200190f35b34801561016257600080fd5b506101446103b1565b34801561017757600080fd5b506101446103b7565b34801561018c57600080fd5b506101446103bd565b3480156101a157600080fd5b506101446103c3565b3480156101b657600080fd5b506101046103c9565b3480156101cb57600080fd5b5061011b61046e565b3480156101e057600080fd5b506101e9610479565b6040805173ffffffffffffffffffffffffffffffffffffffff9092168252519081900360200190f35b34801561021e57600080fd5b50610104610495565b34801561023357600080fd5b5061011b610526565b34801561024857600080fd5b5061011b610531565b34801561025d57600080fd5b506101e961053a565b34801561027257600080fd5b50610104610556565b34801561028757600080fd5b50610144610605565b61010473ffffffffffffffffffffffffffffffffffffffff600435166102f4565b3480156102bd57600080fd5b5061010473ffffffffffffffffffffffffffffffffffffffff6004351661060b565b3480156102eb57600080fd5b506101e961063b565b3460006103018383610657565b61030a82610686565b600454909150610320908363ffffffff6106a316565b60045561032d83826106b0565b6040805183815260208101839052815173ffffffffffffffffffffffffffffffffffffffff86169233927f623b3804fa71d67900d064613da8f94b9617215ee90799290593e1745087ad18929081900390910190a361038c8383610682565b6103946106ba565b61039e8383610682565b505050565b600654421190565b60035481565b60075481565b60095481565b60045481565b60065481565b60005473ffffffffffffffffffffffffffffffffffffffff1633146103ed57600080fd5b60085460ff16156103fd57600080fd5b6104056103a3565b151561041057600080fd5b610418610748565b6040517f6823b073d48d6e3a7d385eeb601452d680e74bb46afe3255a7d778f3a9b1768190600090a1600880547fffffffffffffffffffffffffffffffffffffffffffffffffffffffffffffff00166001179055565b600754600454101590565b60025473ffffffffffffffffffffffffffffffffffffffff1681565b60005473ffffffffffffffffffffffffffffffffffffffff1633146104b957600080fd5b6000805460405173ffffffffffffffffffffffffffffffffffffffff909116917ff8df31144d9c2f0f6b59d69b8b98abd5459d07f2742c4df920b25aae33c6482091a2600080547fffffffffffffffffffffffff0000000000000000000000000000000000000000169055565b600954600454101590565b60085460ff1681565b60005473ffffffffffffffffffffffffffffffffffffffff1681565b60085460ff16151561056757600080fd5b61056f610526565b1561057957600080fd5b600a54604080517f51cff8d9000000000000000000000000000000000000000000000000000000008152336004820152905173ffffffffffffffffffffffffffffffffffffffff909216916351cff8d99160248082019260009290919082900301818387803b1580156105eb57600080fd5b505af11580156105ff573d6000803e3d6000fd5b50505050565b60055481565b60005473ffffffffffffffffffffffffffffffffffffffff16331461062f57600080fd5b6106388161093b565b50565b60015473ffffffffffffffffffffffffffffffffffffffff1681565b61066182826109ea565b600754600454610677908363ffffffff6106a316565b111561068257600080fd5b5050565b600061069d60035483610a1390919063ffffffff16565b92915050565b8181018281101561069d57fe5b6106828282610a3c565b600a54604080517ff340fa01000000000000000000000000000000000000000000000000000000008152336004820152905173ffffffffffffffffffffffffffffffffffffffff9092169163f340fa01913491602480830192600092919082900301818588803b15801561072d57600080fd5b505af1158015610741573d6000803e3d6000fd5b5050505050565b610750610526565b1561089657600a60009054906101000a900473ffffffffffffffffffffffffffffffffffffffff1673ffffffffffffffffffffffffffffffffffffffff166343d726d66040518163ffffffff167c0100000000000000000000000000000000000000000000000000000000028152600401600060405180830381600087803b1580156107db57600080fd5b505af11580156107ef573d6000803e3d6000fd5b50505050600a60009054906101000a900473ffffffffffffffffffffffffffffffffffffffff1673ffffffffffffffffffffffffffffffffffffffff16639af6549a6040518163ffffffff167c0100000000000000000000000000000000000000000000000000000000028152600401600060405180830381600087803b15801561087957600080fd5b505af115801561088d573d6000803e3d6000fd5b50505050610935565b600a60009054906101000a900473ffffffffffffffffffffffffffffffffffffffff1673ffffffffffffffffffffffffffffffffffffffff16638c52dc416040518163ffffffff167c0100000000000000000000000000000000000000000000000000000000028152600401600060405180830381600087803b15801561091c57600080fd5b505af1158015610930573d6000803e3d6000fd5b505050505b6109395b565b73ffffffffffffffffffffffffffffffffffffffff8116151561095d57600080fd5b6000805460405173ffffffffffffffffffffffffffffffffffffffff808516939216917f8be0079c531659141344cd1fd0a4f28419497f9722a3daafe3b4186f6b6457e091a3600080547fffffffffffffffffffffffff00000000000000000000000000000000000000001673ffffffffffffffffffffffffffffffffffffffff92909216919091179055565b60055442101580156109fe57506006544211155b1515610a0957600080fd5b6106828282610aef565b6000821515610a245750600061069d565b50818102818382811515610a3457fe5b041461069d57fe5b600154604080517f40c10f1900000000000000000000000000000000000000000000000000000000815273ffffffffffffffffffffffffffffffffffffffff858116600483015260248201859052915191909216916340c10f199160448083019260209291908290030181600087803b158015610ab857600080fd5b505af1158015610acc573d6000803e3d6000fd5b505050506040513d6020811015610ae257600080fd5b5051151561068257600080fd5b73ffffffffffffffffffffffffffffffffffffffff82161515610b1157600080fd5b80151561068257600080fd00a165627a7a72305820f42eed6718693da1d14c47cd7cfe82317ec3d5eceb62292561c9c4ff537d5aa90029608060405234801561001057600080fd5b506040516020806108b2833981016040525160008054600160a060020a03191633179055600160a060020a038116151561004957600080fd5b6002805460ff19600160a060020a03939093166101000261010060a860020a03199091161791909116905561082f806100836000396000f3006080604052600436106100b95763ffffffff7c010000000000000000000000000000000000000000000000000000000060003504166338af3eed81146100be57806343d726d6146100fc57806351cff8d914610113578063685ca19414610141578063715018a6146101835780638c52dc41146101985780638da5cb5b146101ad5780639af6549a146101c2578063c19d93fb146101d7578063e3a9db1a14610210578063f2fde38b14610250578063f340fa011461027e575b600080fd5b3480156100ca57600080fd5b506100d361029f565b6040805173ffffffffffffffffffffffffffffffffffffffff9092168252519081900360200190f35b34801561010857600080fd5b506101116102c0565b005b34801561011f57600080fd5b5061011173ffffffffffffffffffffffffffffffffffffffff60043516610338565b34801561014d57600080fd5b5061016f73ffffffffffffffffffffffffffffffffffffffff60043516610358565b604080519115158252519081900360200190f35b34801561018f57600080fd5b50610111610374565b3480156101a457600080fd5b50610111610405565b3480156101b957600080fd5b506100d361047e565b3480156101ce57600080fd5b5061011161049a565b3480156101e357600080fd5b506101ec610503565b604051808260028111156101fc57fe5b60ff16815260200191505060405180910390f35b34801561021c57600080fd5b5061023e73ffffffffffffffffffffffffffffffffffffffff6004351661050c565b60408051918252519081900360200190f35b34801561025c57600080fd5b5061011173ffffffffffffffffffffffffffffffffffffffff60043516610534565b61011173ffffffffffffffffffffffffffffffffffffffff60043516610561565b600254610100900473ffffffffffffffffffffffffffffffffffffffff1681565b60005473ffffffffffffffffffffffffffffffffffffffff1633146102e457600080fd5b60006002805460ff16908111156102f757fe5b1461030157600080fd5b6002805460ff1916811790556040517f1cdde67b72a90f19919ac732a437ac2f7a10fc128d28c2a6e525d89ce5cd9d3a90600090a1565b61034181610358565b151561034c57600080fd5b61035581610587565b50565b600060016002805460ff169081111561036d57fe5b1492915050565b60005473ffffffffffffffffffffffffffffffffffffffff16331461039857600080fd5b6000805460405173ffffffffffffffffffffffffffffffffffffffff909116917ff8df31144d9c2f0f6b59d69b8b98abd5459d07f2742c4df920b25aae33c6482091a2600080547fffffffffffffffffffffffff0000000000000000000000000000000000000000169055565b60005473ffffffffffffffffffffffffffffffffffffffff16331461042957600080fd5b60006002805460ff169081111561043c57fe5b1461044657600080fd5b6002805460ff191660011790556040517f599d8e5a83cffb867d051598c4d70e805d59802d8081c1c7d6dffc5b6aca2b8990600090a1565b60005473ffffffffffffffffffffffffffffffffffffffff1681565b6002805460ff16818111156104ab57fe5b146104b557600080fd5b60025460405173ffffffffffffffffffffffffffffffffffffffff6101009092049190911690303180156108fc02916000818181858888f19350505050158015610355573d6000803e3d6000fd5b60025460ff1681565b73ffffffffffffffffffffffffffffffffffffffff1660009081526001602052604090205490565b60005473ffffffffffffffffffffffffffffffffffffffff16331461055857600080fd5b61035581610680565b60006002805460ff169081111561057457fe5b1461057e57600080fd5b6103558161072f565b6000805473ffffffffffffffffffffffffffffffffffffffff1633146105ac57600080fd5b5073ffffffffffffffffffffffffffffffffffffffff811660009081526001602052604090205430318111156105de57fe5b73ffffffffffffffffffffffffffffffffffffffff82166000818152600160205260408082208290555183156108fc0291849190818181858888f1935050505015801561062f573d6000803e3d6000fd5b5060408051828152905173ffffffffffffffffffffffffffffffffffffffff8416917f7084f5476618d8e60b11ef0d7d3f06914655adb8793e28ff7f018d4c76d505d5919081900360200190a25050565b73ffffffffffffffffffffffffffffffffffffffff811615156106a257600080fd5b6000805460405173ffffffffffffffffffffffffffffffffffffffff808516939216917f8be0079c531659141344cd1fd0a4f28419497f9722a3daafe3b4186f6b6457e091a3600080547fffffffffffffffffffffffff00000000000000000000000000000000000000001673ffffffffffffffffffffffffffffffffffffffff92909216919091179055565b6000805473ffffffffffffffffffffffffffffffffffffffff16331461075457600080fd5b5073ffffffffffffffffffffffffffffffffffffffff8116600090815260016020526040902054349061078d908263ffffffff6107f016565b73ffffffffffffffffffffffffffffffffffffffff8316600081815260016020908152604091829020939093558051848152905191927f2da466a7b24304f47e87fa2e1e5a81b9831ce54fec19055ce277ca2f39ba42c492918290030190a25050565b818101828110156107fd57fe5b929150505600a165627a7a723058208f26a21923a816fe7f7262cebde27acee4972e2a6a7ed399e84a674ebeec21f50029",
  "source": "pragma solidity ^0.4.18;\n\nimport 'openzeppelin-solidity/contracts/crowdsale/Crowdsale.sol';\nimport 'openzeppelin-solidity/contracts/crowdsale/validation/CappedCrowdsale.sol';\nimport 'openzeppelin-solidity/contracts/crowdsale/validation/TimedCrowdsale.sol';\nimport 'openzeppelin-solidity/contracts/crowdsale/distribution/RefundableCrowdsale.sol';\nimport 'openzeppelin-solidity/contracts/crowdsale/emission/MintedCrowdsale.sol';\nimport './TrustFeedMintableToken.sol';\n\ncontract TrustFeedMintedCrowdsale is MintedCrowdsale, TimedCrowdsale, CappedCrowdsale, RefundableCrowdsale {\n\tconstructor(\n    // Start\n    uint256 _openingTime,\n    // End\n    uint256 _closingTime,\n    // Price\n    uint256 _rate,\n    // Owner address (soon to be multi-sig)\n    address _wallet,\n    // The hard cap\n    uint256 _cap,\n    // The token\n    TrustFeedMintableToken _token,\n    // The soft cap\n    uint256 _goal\n  )\n    public                                                                                            \n    Crowdsale(_rate, _wallet, _token)\n    TimedCrowdsale(_openingTime, _closingTime)\n    CappedCrowdsale(_cap)\n    RefundableCrowdsale(_goal)\n  {\n    require(_goal <= _cap);\n  }\n}\n",
  "sourcePath": "/home/wetterj/tmp-api/truffle/contracts/TrustFeedMintedCrowdsale.sol",
  "compiler": {
    "name": "solc",
    "version": "0.4.24+commit.e67f0147.Emscripten.clang"
  },
  "schemaVersion": "2.0.1",
  "updatedAt": "2018-10-08T07:54:20.847Z"
}