{
  "contractName": "TrustFeedCampaignRegistry",
  "contractVersion": "0.0.0",
  "abi": [
    {
      "anonymous": false,
      "inputs": [
        {
          "indexed": false,
          "name": "campaignAddress",
          "type": "address"
        },
        {
          "indexed": false,
          "name": "campaignId",
          "type": "string"
        }
      ],
      "name": "NewCampaign",
      "type": "event"
    },
    {
      "constant": false,
      "inputs": [
        {
          "name": "campaignAddress",
          "type": "address"
        },
        {
          "name": "campaignId",
          "type": "string"
        }
      ],
      "name": "register",
      "outputs": [],
      "payable": false,
      "stateMutability": "nonpayable",
      "type": "function"
    }
  ],
  "bytecode": "0x608060405234801561001057600080fd5b506101b8806100206000396000f3006080604052600436106100405763ffffffff7c010000000000000000000000000000000000000000000000000000000060003504166332434a2e8114610045575b600080fd5b34801561005157600080fd5b5060408051602060046024803582810135601f81018590048502860185019096528585526100b995833573ffffffffffffffffffffffffffffffffffffffff169536956044949193909101919081908401838280828437509497506100bb9650505050505050565b005b7fb9fb0767eb7828b47fec6477452ea477847084b605dab5774154f8a1f4a5523c8282604051808373ffffffffffffffffffffffffffffffffffffffff1673ffffffffffffffffffffffffffffffffffffffff16815260200180602001828103825283818151815260200191508051906020019080838360005b8381101561014d578181015183820152602001610135565b50505050905090810190601f16801561017a5780820380516001836020036101000a031916815260200191505b50935050505060405180910390a150505600a165627a7a7230582043c60c7b092c6a0957ce79e5205bb103dff1e7046d3a6470509cfb54e771beeb0029",
  "source": "pragma solidity ^0.4.21;\n\n// Register a new campaign\ncontract TrustFeedCampaignRegistry {\n  event NewCampaign(\n    address campaignAddress,\n    string campaignId\n  );\n\n  function register(address campaignAddress, string campaignId) public {\n    emit NewCampaign(campaignAddress, campaignId);\n  }\n}\n",
  "sourcePath": "/home/wetterj/crowdsale-api/truffle/contracts/TrustFeedRegistry.sol",
  "compiler": {
    "name": "solc",
    "version": "0.4.24+commit.e67f0147.Emscripten.clang"
  },
  "schemaVersion": "2.0.1",
  "updatedAt": "2018-08-29T03:50:25.896Z"
}