{
  "contractName": "TrustFeedCampaign",
  "contractVersion": "0.0.0",
  "abi": [
    {
      "constant": true,
      "inputs": [],
      "name": "wallet",
      "outputs": [
        {
          "name": "",
          "type": "address"
        }
      ],
      "payable": false,
      "stateMutability": "view",
      "type": "function"
    },
    {
      "constant": true,
      "inputs": [],
      "name": "crowdsale",
      "outputs": [
        {
          "name": "",
          "type": "address"
        }
      ],
      "payable": false,
      "stateMutability": "view",
      "type": "function"
    },
    {
      "constant": true,
      "inputs": [],
      "name": "token",
      "outputs": [
        {
          "name": "",
          "type": "address"
        }
      ],
      "payable": false,
      "stateMutability": "view",
      "type": "function"
    },
    {
      "inputs": [
        {
          "name": "_owners",
          "type": "address[]"
        },
        {
          "name": "_name",
          "type": "string"
        },
        {
          "name": "_symbol",
          "type": "string"
        },
        {
          "name": "_decimals",
          "type": "uint8"
        },
        {
          "name": "_initialSupply",
          "type": "uint256"
        },
        {
          "name": "_openingTime",
          "type": "uint256"
        },
        {
          "name": "_closingTime",
          "type": "uint256"
        },
        {
          "name": "_rate",
          "type": "uint256"
        },
        {
          "name": "_cap",
          "type": "uint256"
        },
        {
          "name": "_goal",
          "type": "uint256"
        }
      ],
      "payable": false,
      "stateMutability": "nonpayable",
      "type": "constructor"
    }
  ],
  "bytecode": "0x608060405234801561001057600080fd5b50604051613f1d380380613f1d83398101604090815281516020830151918301516060840151608085015160a086015160c087015160e08801516101008901516101208a0151978a019998890198969096019694959394929391929091908960026100796102dd565b60208082018390526040808352845190830152835182916060830191868201910280838360005b838110156100b85781810151838201526020016100a0565b505050509050019350505050604051809103906000f0801580156100e0573d6000803e3d6000fd5b5060008054600160a060020a031916600160a060020a0392831617908190558a918a918a918a91166101106102ed565b60ff8416604082015260608101839052600160a060020a038216608082015260a08082528651908201528551819060208083019160c08401918a019080838360005b8381101561016a578181015183820152602001610152565b50505050905090810190601f1680156101975780820380516001836020036101000a031916815260200191505b50838103825287518152875160209182019189019080838360005b838110156101ca5781810151838201526020016101b2565b50505050905090810190601f1680156101f75780820380516001836020036101000a031916815260200191505b50975050505050505050604051809103906000f08015801561021d573d6000803e3d6000fd5b5060018054600160a060020a031916600160a060020a039283161790819055600054879287928792821691879116866102546102fd565b9687526020870195909552604080870194909452600160a060020a03928316606087015260808601919091521660a084015260c0830191909152519081900360e001906000f0801580156102ac573d6000803e3d6000fd5b5060028054600160a060020a031916600160a060020a03929092169190911790555061030d98505050505050505050565b6040516119538061045f83390190565b604051610b6680611db283390190565b6040516116058061291883390190565b6101438061031c6000396000f3006080604052600436106100565763ffffffff7c0100000000000000000000000000000000000000000000000000000000600035041663521eb273811461005b5780639c1e03a014610099578063fc0c546a146100ae575b600080fd5b34801561006757600080fd5b506100706100c3565b6040805173ffffffffffffffffffffffffffffffffffffffff9092168252519081900360200190f35b3480156100a557600080fd5b506100706100df565b3480156100ba57600080fd5b506100706100fb565b60005473ffffffffffffffffffffffffffffffffffffffff1681565b60025473ffffffffffffffffffffffffffffffffffffffff1681565b60015473ffffffffffffffffffffffffffffffffffffffff16815600a165627a7a723058209328963b0170aa653d4f8840c0cac6db432f5a549beb71b62b98000cef0771d2002960806040523480156200001157600080fd5b5060405162001953380380620019538339810160405280516020820151910180519091906000908260048211806200004857508181115b8062000052575080155b806200005c575081155b156200006757600080fd5b600092505b84518310156200013b576002600086858151811015156200008957fe5b6020908102909101810151600160a060020a031682528101919091526040016000205460ff1680620000dc57508483815181101515620000c557fe5b90602001906020020151600160a060020a03166000145b15620000e757600080fd5b6001600260008786815181101515620000fc57fe5b602090810291909101810151600160a060020a03168252810191909152604001600020805460ff1916911515919091179055600192909201916200006c565b84516200015090600390602088019062000162565b50505060049190915550620001f69050565b828054828255906000526020600020908101928215620001ba579160200282015b82811115620001ba5782518254600160a060020a031916600160a060020a0390911617825560209092019160019091019062000183565b50620001c8929150620001cc565b5090565b620001f391905b80821115620001c8578054600160a060020a0319168155600101620001d3565b90565b61174d80620002066000396000f30060806040526004361061011c5763ffffffff7c0100000000000000000000000000000000000000000000000000000000600035041663025e7c27811461015e578063173825d91461019f57806320ea8d86146101cd5780632f54bf6e146101e55780633411c81c1461022757806354741525146102585780637065cb4814610289578063784547a7146102b75780638b51d13f146102cf5780639ace38c2146102e7578063a0e67e2b146103bc578063a8abe69a14610421578063b5dc40c314610446578063b77bf6001461045e578063ba51a6df14610473578063c01a8c841461048b578063c6427474146104a3578063d74f8edd14610519578063dc8452cd1461052e578063e20056e614610543578063ee22610b14610577575b600034111561015c5760408051348152905133917fe1fffcc4923d04b559f4d29a8bfc6cda04eb5b0d3c460751c2402c5c5cc9109c919081900360200190a25b005b34801561016a57600080fd5b5061017660043561058f565b6040805173ffffffffffffffffffffffffffffffffffffffff9092168252519081900360200190f35b3480156101ab57600080fd5b5061015c73ffffffffffffffffffffffffffffffffffffffff600435166105c4565b3480156101d957600080fd5b5061015c6004356107a3565b3480156101f157600080fd5b5061021373ffffffffffffffffffffffffffffffffffffffff6004351661085d565b604080519115158252519081900360200190f35b34801561023357600080fd5b5061021360043573ffffffffffffffffffffffffffffffffffffffff60243516610872565b34801561026457600080fd5b5061027760043515156024351515610892565b60408051918252519081900360200190f35b34801561029557600080fd5b5061015c73ffffffffffffffffffffffffffffffffffffffff600435166108fe565b3480156102c357600080fd5b50610213600435610a4d565b3480156102db57600080fd5b50610277600435610ade565b3480156102f357600080fd5b506102ff600435610b5a565b604051808573ffffffffffffffffffffffffffffffffffffffff1673ffffffffffffffffffffffffffffffffffffffff1681526020018481526020018060200183151515158152602001828103825284818151815260200191508051906020019080838360005b8381101561037e578181015183820152602001610366565b50505050905090810190601f1680156103ab5780820380516001836020036101000a031916815260200191505b509550505050505060405180910390f35b3480156103c857600080fd5b506103d1610c25565b60408051602080825283518183015283519192839290830191858101910280838360005b8381101561040d5781810151838201526020016103f5565b505050509050019250505060405180910390f35b34801561042d57600080fd5b506103d160043560243560443515156064351515610c95565b34801561045257600080fd5b506103d1600435610dce565b34801561046a57600080fd5b50610277610f7b565b34801561047f57600080fd5b5061015c600435610f81565b34801561049757600080fd5b5061015c600435610ff8565b3480156104af57600080fd5b50604080516020600460443581810135601f810184900484028501840190955284845261027794823573ffffffffffffffffffffffffffffffffffffffff169460248035953695946064949201919081908401838280828437509497506110d09650505050505050565b34801561052557600080fd5b506102776110ef565b34801561053a57600080fd5b506102776110f4565b34801561054f57600080fd5b5061015c73ffffffffffffffffffffffffffffffffffffffff600435811690602435166110fa565b34801561058357600080fd5b5061015c6004356112ec565b600380548290811061059d57fe5b60009182526020909120015473ffffffffffffffffffffffffffffffffffffffff16905081565b60003330146105d257600080fd5b73ffffffffffffffffffffffffffffffffffffffff8216600090815260026020526040902054829060ff16151561060857600080fd5b73ffffffffffffffffffffffffffffffffffffffff83166000908152600260205260408120805460ff1916905591505b60035460001901821015610731578273ffffffffffffffffffffffffffffffffffffffff1660038381548110151561066c57fe5b60009182526020909120015473ffffffffffffffffffffffffffffffffffffffff161415610726576003805460001981019081106106a657fe5b6000918252602090912001546003805473ffffffffffffffffffffffffffffffffffffffff90921691849081106106d957fe5b9060005260206000200160006101000a81548173ffffffffffffffffffffffffffffffffffffffff021916908373ffffffffffffffffffffffffffffffffffffffff160217905550610731565b600190910190610638565b6003805460001901906107449082611624565b50600354600454111561075d5760035461075d90610f81565b60405173ffffffffffffffffffffffffffffffffffffffff8416907f8001553a916ef2f495d26a907cc54d96ed840d7bda71e73194bf5a9df7a76b9090600090a2505050565b3360008181526002602052604090205460ff1615156107c157600080fd5b60008281526001602090815260408083203380855292529091205483919060ff1615156107ed57600080fd5b600084815260208190526040902060030154849060ff161561080e57600080fd5b6000858152600160209081526040808320338085529252808320805460ff191690555187927ff6a317157440607f36269043eb55f1287a5a19ba2216afeab88cd46cbcfb88e991a35050505050565b60026020526000908152604090205460ff1681565b600160209081526000928352604080842090915290825290205460ff1681565b6000805b6005548110156108f7578380156108bf575060008181526020819052604090206003015460ff16155b806108e357508280156108e3575060008181526020819052604090206003015460ff165b156108ef576001820191505b600101610896565b5092915050565b33301461090a57600080fd5b73ffffffffffffffffffffffffffffffffffffffff8116600090815260026020526040902054819060ff161561093f57600080fd5b8173ffffffffffffffffffffffffffffffffffffffff8116151561096257600080fd5b600380549050600101600454600482118061097c57508181115b80610985575080155b8061098e575081155b1561099857600080fd5b73ffffffffffffffffffffffffffffffffffffffff8516600081815260026020526040808220805460ff1916600190811790915560038054918201815583527fc2575a0e9e593c00f959f8c92f12db2869c3395a3b0502d05e2516446f71f85b0180547fffffffffffffffffffffffff00000000000000000000000000000000000000001684179055517ff39e6e1eb0edcf53c221607b54b00cd28f3196fed0a24994dc308b8f611b682d9190a25050505050565b600080805b600354811015610ad75760008481526001602052604081206003805491929184908110610a7b57fe5b600091825260208083209091015473ffffffffffffffffffffffffffffffffffffffff16835282019290925260400190205460ff1615610abc576001820191505b600454821415610acf5760019250610ad7565b600101610a52565b5050919050565b6000805b600354811015610b545760008381526001602052604081206003805491929184908110610b0b57fe5b600091825260208083209091015473ffffffffffffffffffffffffffffffffffffffff16835282019290925260400190205460ff1615610b4c576001820191505b600101610ae2565b50919050565b6000602081815291815260409081902080546001808301546002808501805487516101009582161595909502600019011691909104601f810188900488028401880190965285835273ffffffffffffffffffffffffffffffffffffffff90931695909491929190830182828015610c125780601f10610be757610100808354040283529160200191610c12565b820191906000526020600020905b815481529060010190602001808311610bf557829003601f168201915b5050506003909301549192505060ff1684565b60606003805480602002602001604051908101604052809291908181526020018280548015610c8a57602002820191906000526020600020905b815473ffffffffffffffffffffffffffffffffffffffff168152600190910190602001808311610c5f575b505050505090505b90565b606080600080600554604051908082528060200260200182016040528015610cc7578160200160208202803883390190505b50925060009150600090505b600554811015610d4e57858015610cfc575060008181526020819052604090206003015460ff16155b80610d205750848015610d20575060008181526020819052604090206003015460ff165b15610d4657808383815181101515610d3457fe5b60209081029091010152600191909101905b600101610cd3565b878703604051908082528060200260200182016040528015610d7a578160200160208202803883390190505b5093508790505b86811015610dc3578281815181101515610d9757fe5b9060200190602002015184898303815181101515610db157fe5b60209081029091010152600101610d81565b505050949350505050565b606080600080600380549050604051908082528060200260200182016040528015610e03578160200160208202803883390190505b50925060009150600090505b600354811015610ee75760008581526001602052604081206003805491929184908110610e3857fe5b600091825260208083209091015473ffffffffffffffffffffffffffffffffffffffff16835282019290925260400190205460ff1615610edf576003805482908110610e8057fe5b600091825260209091200154835173ffffffffffffffffffffffffffffffffffffffff90911690849084908110610eb357fe5b73ffffffffffffffffffffffffffffffffffffffff909216602092830290910190910152600191909101905b600101610e0f565b81604051908082528060200260200182016040528015610f11578160200160208202803883390190505b509350600090505b81811015610f73578281815181101515610f2f57fe5b906020019060200201518482815181101515610f4757fe5b73ffffffffffffffffffffffffffffffffffffffff909216602092830290910190910152600101610f19565b505050919050565b60055481565b333014610f8d57600080fd5b600354816004821180610f9f57508181115b80610fa8575080155b80610fb1575081155b15610fbb57600080fd5b60048390556040805184815290517fa3f1ee9126a074d9326c682f561767f710e927faa811f7a99829d49dc421797a9181900360200190a1505050565b3360008181526002602052604090205460ff16151561101657600080fd5b600082815260208190526040902054829073ffffffffffffffffffffffffffffffffffffffff16151561104857600080fd5b60008381526001602090815260408083203380855292529091205484919060ff161561107357600080fd5b6000858152600160208181526040808420338086529252808420805460ff1916909317909255905187927f4a504a94899432a9846e1aa406dceb1bcfd538bb839071d49d1e5e23f5be30ef91a36110c9856112ec565b5050505050565b60006110dd84848461150f565b90506110e881610ff8565b9392505050565b600481565b60045481565b600033301461110857600080fd5b73ffffffffffffffffffffffffffffffffffffffff8316600090815260026020526040902054839060ff16151561113e57600080fd5b73ffffffffffffffffffffffffffffffffffffffff8316600090815260026020526040902054839060ff161561117357600080fd5b600092505b600354831015611238578473ffffffffffffffffffffffffffffffffffffffff166003848154811015156111a857fe5b60009182526020909120015473ffffffffffffffffffffffffffffffffffffffff16141561122d57836003848154811015156111e057fe5b9060005260206000200160006101000a81548173ffffffffffffffffffffffffffffffffffffffff021916908373ffffffffffffffffffffffffffffffffffffffff160217905550611238565b600190920191611178565b73ffffffffffffffffffffffffffffffffffffffff808616600081815260026020526040808220805460ff1990811690915593881682528082208054909416600117909355915190917f8001553a916ef2f495d26a907cc54d96ed840d7bda71e73194bf5a9df7a76b9091a260405173ffffffffffffffffffffffffffffffffffffffff8516907ff39e6e1eb0edcf53c221607b54b00cd28f3196fed0a24994dc308b8f611b682d90600090a25050505050565b6112f4611648565b600082815260208190526040902060030154829060ff161561131557600080fd5b61131e83610a4d565b1561150a57600083815260208181526040918290208251608081018452815473ffffffffffffffffffffffffffffffffffffffff168152600180830154828501526002808401805487516101009482161594909402600019011691909104601f810186900486028301860187528083529295939493860193919290918301828280156113eb5780601f106113c0576101008083540402835291602001916113eb565b820191906000526020600020905b8154815290600101906020018083116113ce57829003601f168201915b50505091835250506003919091015460ff161515602091820152600160608301528151828201516040808501519051815195975073ffffffffffffffffffffffffffffffffffffffff909316949193909291829184019080838360005b83811015611460578181015183820152602001611448565b50505050905090810190601f16801561148d5780820380516001836020036101000a031916815260200191505b5091505060006040518083038185875af192505050156114d75760405183907f33e13ecb54c3076d8e8bb8c2881800a4d972b792045ffae98fdf46df365fed7590600090a261150a565b60405183907f526441bb6c1aba3c9a4a6ca1d6545da9c2333c8c48343ef398eb858d72b7923690600090a2600060608301525b505050565b60008373ffffffffffffffffffffffffffffffffffffffff8116151561153457600080fd5b6005546040805160808101825273ffffffffffffffffffffffffffffffffffffffff8881168252602080830189815283850189815260006060860181905287815280845295909520845181547fffffffffffffffffffffffff000000000000000000000000000000000000000016941693909317835551600183015592518051949650919390926115cc926002850192910190611689565b50606091909101516003909101805460ff191691151591909117905560058054600101905560405182907fc0ba8fe4b176c1714197d43b9cc6bcf797a4a7461c5fe8d0ef6e184ae7601e5190600090a2509392505050565b81548183558181111561150a5760008381526020902061150a918101908301611707565b608060405190810160405280600073ffffffffffffffffffffffffffffffffffffffff16815260200160008152602001606081526020016000151581525090565b828054600181600116156101000203166002900490600052602060002090601f016020900481019282601f106116ca57805160ff19168380011785556116f7565b828001600101855582156116f7579182015b828111156116f75782518255916020019190600101906116dc565b50611703929150611707565b5090565b610c9291905b80821115611703576000815560010161170d5600a165627a7a72305820555f233d66e94fb206886206b8424df9ee5d96edaf7479944ffdb148aab0294c0029608060405234801561001057600080fd5b50604051610b66380380610b668339810160409081528151602080840151928401516060850151608086015193860180519096959095019491939092909161005e91600391908801906100df565b5083516100729060049060208701906100df565b5060018290556005805460ff191660ff8516179055600160a060020a038116600081815260208181526040808320869055805186815290517fddf252ad1be2c89b69c2b068fc378daa952ba7f163c4a11628f55a4df523b3ef929181900390910190a3505050505061017a565b828054600181600116156101000203166002900490600052602060002090601f016020900481019282601f1061012057805160ff191683800117855561014d565b8280016001018555821561014d579182015b8281111561014d578251825591602001919060010190610132565b5061015992915061015d565b5090565b61017791905b808211156101595760008155600101610163565b90565b6109dd806101896000396000f3006080604052600436106100ae5763ffffffff7c010000000000000000000000000000000000000000000000000000000060003504166306fdde0381146100b3578063095ea7b31461013d57806318160ddd1461018257806323b872dd146101a9578063313ce567146101e0578063661884631461020b57806370a082311461023c57806395d89b411461026a578063a9059cbb1461027f578063d73dd623146102b0578063dd62ed3e146102e1575b600080fd5b3480156100bf57600080fd5b506100c8610315565b6040805160208082528351818301528351919283929083019185019080838360005b838110156101025781810151838201526020016100ea565b50505050905090810190601f16801561012f5780820380516001836020036101000a031916815260200191505b509250505060405180910390f35b34801561014957600080fd5b5061016e73ffffffffffffffffffffffffffffffffffffffff600435166024356103a3565b604080519115158252519081900360200190f35b34801561018e57600080fd5b50610197610416565b60408051918252519081900360200190f35b3480156101b557600080fd5b5061016e73ffffffffffffffffffffffffffffffffffffffff6004358116906024351660443561041c565b3480156101ec57600080fd5b506101f56105ec565b6040805160ff9092168252519081900360200190f35b34801561021757600080fd5b5061016e73ffffffffffffffffffffffffffffffffffffffff600435166024356105f5565b34801561024857600080fd5b5061019773ffffffffffffffffffffffffffffffffffffffff60043516610718565b34801561027657600080fd5b506100c8610740565b34801561028b57600080fd5b5061016e73ffffffffffffffffffffffffffffffffffffffff6004351660243561079b565b3480156102bc57600080fd5b5061016e73ffffffffffffffffffffffffffffffffffffffff600435166024356108a1565b3480156102ed57600080fd5b5061019773ffffffffffffffffffffffffffffffffffffffff60043581169060243516610954565b6003805460408051602060026001851615610100026000190190941693909304601f8101849004840282018401909252818152929183018282801561039b5780601f106103705761010080835404028352916020019161039b565b820191906000526020600020905b81548152906001019060200180831161037e57829003601f168201915b505050505081565b33600081815260026020908152604080832073ffffffffffffffffffffffffffffffffffffffff8716808552908352818420869055815186815291519394909390927f8c5be1e5ebec7d5bd14f71427d1e84f3dd0314c0f7b2291e5b200ac8c7c3b925928290030190a350600192915050565b60015490565b73ffffffffffffffffffffffffffffffffffffffff831660009081526020819052604081205482111561044e57600080fd5b73ffffffffffffffffffffffffffffffffffffffff8416600090815260026020908152604080832033845290915290205482111561048b57600080fd5b73ffffffffffffffffffffffffffffffffffffffff831615156104ad57600080fd5b73ffffffffffffffffffffffffffffffffffffffff84166000908152602081905260409020546104e3908363ffffffff61098c16565b73ffffffffffffffffffffffffffffffffffffffff8086166000908152602081905260408082209390935590851681522054610525908363ffffffff61099e16565b73ffffffffffffffffffffffffffffffffffffffff808516600090815260208181526040808320949094559187168152600282528281203382529091522054610574908363ffffffff61098c16565b73ffffffffffffffffffffffffffffffffffffffff808616600081815260026020908152604080832033845282529182902094909455805186815290519287169391927fddf252ad1be2c89b69c2b068fc378daa952ba7f163c4a11628f55a4df523b3ef929181900390910190a35060019392505050565b60055460ff1681565b33600090815260026020908152604080832073ffffffffffffffffffffffffffffffffffffffff861684529091528120548083106106635733600090815260026020908152604080832073ffffffffffffffffffffffffffffffffffffffff881684529091528120556106a5565b610673818463ffffffff61098c16565b33600090815260026020908152604080832073ffffffffffffffffffffffffffffffffffffffff891684529091529020555b33600081815260026020908152604080832073ffffffffffffffffffffffffffffffffffffffff89168085529083529281902054815190815290519293927f8c5be1e5ebec7d5bd14f71427d1e84f3dd0314c0f7b2291e5b200ac8c7c3b925929181900390910190a35060019392505050565b73ffffffffffffffffffffffffffffffffffffffff1660009081526020819052604090205490565b6004805460408051602060026001851615610100026000190190941693909304601f8101849004840282018401909252818152929183018282801561039b5780601f106103705761010080835404028352916020019161039b565b336000908152602081905260408120548211156107b757600080fd5b73ffffffffffffffffffffffffffffffffffffffff831615156107d957600080fd5b336000908152602081905260409020546107f9908363ffffffff61098c16565b336000908152602081905260408082209290925573ffffffffffffffffffffffffffffffffffffffff851681522054610838908363ffffffff61099e16565b73ffffffffffffffffffffffffffffffffffffffff8416600081815260208181526040918290209390935580518581529051919233927fddf252ad1be2c89b69c2b068fc378daa952ba7f163c4a11628f55a4df523b3ef9281900390910190a350600192915050565b33600090815260026020908152604080832073ffffffffffffffffffffffffffffffffffffffff861684529091528120546108e2908363ffffffff61099e16565b33600081815260026020908152604080832073ffffffffffffffffffffffffffffffffffffffff89168085529083529281902085905580519485525191937f8c5be1e5ebec7d5bd14f71427d1e84f3dd0314c0f7b2291e5b200ac8c7c3b925929081900390910190a350600192915050565b73ffffffffffffffffffffffffffffffffffffffff918216600090815260026020908152604080832093909416825291909152205490565b60008282111561099857fe5b50900390565b818101828110156109ab57fe5b929150505600a165627a7a723058201e225fdce031a1871f100e995e1c6d3ae67d9f36ec9575eabf0f6430119aa9a3002960806040526008805460ff1916905534801561001a57600080fd5b5060405160e08061160583398101604090815281516020830151918301516060840151608085015160a086015160c09096015160008054600160a060020a0319163317815594969394929391928190849089908990899089908890831161008057600080fd5b600160a060020a038216151561009557600080fd5b600160a060020a03811615156100aa57600080fd5b60039290925560028054600160a060020a03928316600160a060020a03199182161790915560018054929093169116179055428210156100e957600080fd5b818110156100f657600080fd5b6005919091556006556000811161010c57600080fd5b6007556000811161011c57600080fd5b600254600160a060020a031661013061019a565b600160a060020a03909116815260405190819003602001906000f08015801561015d573d6000803e3d6000fd5b50600a8054600160a060020a031916600160a060020a03929092169190911790556009558281111561018e57600080fd5b505050505050506101aa565b6040516108b280610d5383390190565b610b9a806101b96000396000f3006080604052600436106100fb5763ffffffff7c01000000000000000000000000000000000000000000000000000000006000350416631515bc2b81146101065780632c4e722e1461012f578063355274ea14610156578063401938831461016b5780634042b66f146101805780634b6753bc146101955780634bb278f3146101aa5780634f935945146101bf578063521eb273146101d4578063715018a6146102125780637d3d6522146102275780638d4e40831461023c5780638da5cb5b14610251578063b5545a3c14610266578063b7a8807c1461027b578063ec8ac4d814610290578063f2fde38b146102b1578063fc0c546a146102df575b610104336102f4565b005b34801561011257600080fd5b5061011b6103a3565b604080519115158252519081900360200190f35b34801561013b57600080fd5b506101446103ab565b60408051918252519081900360200190f35b34801561016257600080fd5b506101446103b1565b34801561017757600080fd5b506101446103b7565b34801561018c57600080fd5b506101446103bd565b3480156101a157600080fd5b506101446103c3565b3480156101b657600080fd5b506101046103c9565b3480156101cb57600080fd5b5061011b61046e565b3480156101e057600080fd5b506101e9610479565b6040805173ffffffffffffffffffffffffffffffffffffffff9092168252519081900360200190f35b34801561021e57600080fd5b50610104610495565b34801561023357600080fd5b5061011b610526565b34801561024857600080fd5b5061011b610531565b34801561025d57600080fd5b506101e961053a565b34801561027257600080fd5b50610104610556565b34801561028757600080fd5b50610144610605565b61010473ffffffffffffffffffffffffffffffffffffffff600435166102f4565b3480156102bd57600080fd5b5061010473ffffffffffffffffffffffffffffffffffffffff6004351661060b565b3480156102eb57600080fd5b506101e961063b565b3460006103018383610657565b61030a82610686565b600454909150610320908363ffffffff6106a316565b60045561032d83826106b0565b6040805183815260208101839052815173ffffffffffffffffffffffffffffffffffffffff86169233927f623b3804fa71d67900d064613da8f94b9617215ee90799290593e1745087ad18929081900390910190a361038c8383610682565b6103946106ba565b61039e8383610682565b505050565b600654421190565b60035481565b60075481565b60095481565b60045481565b60065481565b60005473ffffffffffffffffffffffffffffffffffffffff1633146103ed57600080fd5b60085460ff16156103fd57600080fd5b6104056103a3565b151561041057600080fd5b610418610748565b6040517f6823b073d48d6e3a7d385eeb601452d680e74bb46afe3255a7d778f3a9b1768190600090a1600880547fffffffffffffffffffffffffffffffffffffffffffffffffffffffffffffff00166001179055565b600754600454101590565b60025473ffffffffffffffffffffffffffffffffffffffff1681565b60005473ffffffffffffffffffffffffffffffffffffffff1633146104b957600080fd5b6000805460405173ffffffffffffffffffffffffffffffffffffffff909116917ff8df31144d9c2f0f6b59d69b8b98abd5459d07f2742c4df920b25aae33c6482091a2600080547fffffffffffffffffffffffff0000000000000000000000000000000000000000169055565b600954600454101590565b60085460ff1681565b60005473ffffffffffffffffffffffffffffffffffffffff1681565b60085460ff16151561056757600080fd5b61056f610526565b1561057957600080fd5b600a54604080517f51cff8d9000000000000000000000000000000000000000000000000000000008152336004820152905173ffffffffffffffffffffffffffffffffffffffff909216916351cff8d99160248082019260009290919082900301818387803b1580156105eb57600080fd5b505af11580156105ff573d6000803e3d6000fd5b50505050565b60055481565b60005473ffffffffffffffffffffffffffffffffffffffff16331461062f57600080fd5b6106388161093b565b50565b60015473ffffffffffffffffffffffffffffffffffffffff1681565b61066182826109ea565b600754600454610677908363ffffffff6106a316565b111561068257600080fd5b5050565b600061069d60035483610a1390919063ffffffff16565b92915050565b8181018281101561069d57fe5b6106828282610a3c565b600a54604080517ff340fa01000000000000000000000000000000000000000000000000000000008152336004820152905173ffffffffffffffffffffffffffffffffffffffff9092169163f340fa01913491602480830192600092919082900301818588803b15801561072d57600080fd5b505af1158015610741573d6000803e3d6000fd5b5050505050565b610750610526565b1561089657600a60009054906101000a900473ffffffffffffffffffffffffffffffffffffffff1673ffffffffffffffffffffffffffffffffffffffff166343d726d66040518163ffffffff167c0100000000000000000000000000000000000000000000000000000000028152600401600060405180830381600087803b1580156107db57600080fd5b505af11580156107ef573d6000803e3d6000fd5b50505050600a60009054906101000a900473ffffffffffffffffffffffffffffffffffffffff1673ffffffffffffffffffffffffffffffffffffffff16639af6549a6040518163ffffffff167c0100000000000000000000000000000000000000000000000000000000028152600401600060405180830381600087803b15801561087957600080fd5b505af115801561088d573d6000803e3d6000fd5b50505050610935565b600a60009054906101000a900473ffffffffffffffffffffffffffffffffffffffff1673ffffffffffffffffffffffffffffffffffffffff16638c52dc416040518163ffffffff167c0100000000000000000000000000000000000000000000000000000000028152600401600060405180830381600087803b15801561091c57600080fd5b505af1158015610930573d6000803e3d6000fd5b505050505b6109395b565b73ffffffffffffffffffffffffffffffffffffffff8116151561095d57600080fd5b6000805460405173ffffffffffffffffffffffffffffffffffffffff808516939216917f8be0079c531659141344cd1fd0a4f28419497f9722a3daafe3b4186f6b6457e091a3600080547fffffffffffffffffffffffff00000000000000000000000000000000000000001673ffffffffffffffffffffffffffffffffffffffff92909216919091179055565b60055442101580156109fe57506006544211155b1515610a0957600080fd5b6106828282610a66565b6000821515610a245750600061069d565b50818102818382811515610a3457fe5b041461069d57fe5b6001546106829073ffffffffffffffffffffffffffffffffffffffff16838363ffffffff610a9416565b73ffffffffffffffffffffffffffffffffffffffff82161515610a8857600080fd5b80151561068257600080fd5b8273ffffffffffffffffffffffffffffffffffffffff1663a9059cbb83836040518363ffffffff167c0100000000000000000000000000000000000000000000000000000000028152600401808373ffffffffffffffffffffffffffffffffffffffff1673ffffffffffffffffffffffffffffffffffffffff16815260200182815260200192505050602060405180830381600087803b158015610b3757600080fd5b505af1158015610b4b573d6000803e3d6000fd5b505050506040513d6020811015610b6157600080fd5b5051151561039e57600080fd00a165627a7a723058204d6f9fc86c612b91dee5451442db3a51f33d990b02a6c7191c0c19fd231941da0029608060405234801561001057600080fd5b506040516020806108b2833981016040525160008054600160a060020a03191633179055600160a060020a038116151561004957600080fd5b6002805460ff19600160a060020a03939093166101000261010060a860020a03199091161791909116905561082f806100836000396000f3006080604052600436106100b95763ffffffff7c010000000000000000000000000000000000000000000000000000000060003504166338af3eed81146100be57806343d726d6146100fc57806351cff8d914610113578063685ca19414610141578063715018a6146101835780638c52dc41146101985780638da5cb5b146101ad5780639af6549a146101c2578063c19d93fb146101d7578063e3a9db1a14610210578063f2fde38b14610250578063f340fa011461027e575b600080fd5b3480156100ca57600080fd5b506100d361029f565b6040805173ffffffffffffffffffffffffffffffffffffffff9092168252519081900360200190f35b34801561010857600080fd5b506101116102c0565b005b34801561011f57600080fd5b5061011173ffffffffffffffffffffffffffffffffffffffff60043516610338565b34801561014d57600080fd5b5061016f73ffffffffffffffffffffffffffffffffffffffff60043516610358565b604080519115158252519081900360200190f35b34801561018f57600080fd5b50610111610374565b3480156101a457600080fd5b50610111610405565b3480156101b957600080fd5b506100d361047e565b3480156101ce57600080fd5b5061011161049a565b3480156101e357600080fd5b506101ec610503565b604051808260028111156101fc57fe5b60ff16815260200191505060405180910390f35b34801561021c57600080fd5b5061023e73ffffffffffffffffffffffffffffffffffffffff6004351661050c565b60408051918252519081900360200190f35b34801561025c57600080fd5b5061011173ffffffffffffffffffffffffffffffffffffffff60043516610534565b61011173ffffffffffffffffffffffffffffffffffffffff60043516610561565b600254610100900473ffffffffffffffffffffffffffffffffffffffff1681565b60005473ffffffffffffffffffffffffffffffffffffffff1633146102e457600080fd5b60006002805460ff16908111156102f757fe5b1461030157600080fd5b6002805460ff1916811790556040517f1cdde67b72a90f19919ac732a437ac2f7a10fc128d28c2a6e525d89ce5cd9d3a90600090a1565b61034181610358565b151561034c57600080fd5b61035581610587565b50565b600060016002805460ff169081111561036d57fe5b1492915050565b60005473ffffffffffffffffffffffffffffffffffffffff16331461039857600080fd5b6000805460405173ffffffffffffffffffffffffffffffffffffffff909116917ff8df31144d9c2f0f6b59d69b8b98abd5459d07f2742c4df920b25aae33c6482091a2600080547fffffffffffffffffffffffff0000000000000000000000000000000000000000169055565b60005473ffffffffffffffffffffffffffffffffffffffff16331461042957600080fd5b60006002805460ff169081111561043c57fe5b1461044657600080fd5b6002805460ff191660011790556040517f599d8e5a83cffb867d051598c4d70e805d59802d8081c1c7d6dffc5b6aca2b8990600090a1565b60005473ffffffffffffffffffffffffffffffffffffffff1681565b6002805460ff16818111156104ab57fe5b146104b557600080fd5b60025460405173ffffffffffffffffffffffffffffffffffffffff6101009092049190911690303180156108fc02916000818181858888f19350505050158015610355573d6000803e3d6000fd5b60025460ff1681565b73ffffffffffffffffffffffffffffffffffffffff1660009081526001602052604090205490565b60005473ffffffffffffffffffffffffffffffffffffffff16331461055857600080fd5b61035581610680565b60006002805460ff169081111561057457fe5b1461057e57600080fd5b6103558161072f565b6000805473ffffffffffffffffffffffffffffffffffffffff1633146105ac57600080fd5b5073ffffffffffffffffffffffffffffffffffffffff811660009081526001602052604090205430318111156105de57fe5b73ffffffffffffffffffffffffffffffffffffffff82166000818152600160205260408082208290555183156108fc0291849190818181858888f1935050505015801561062f573d6000803e3d6000fd5b5060408051828152905173ffffffffffffffffffffffffffffffffffffffff8416917f7084f5476618d8e60b11ef0d7d3f06914655adb8793e28ff7f018d4c76d505d5919081900360200190a25050565b73ffffffffffffffffffffffffffffffffffffffff811615156106a257600080fd5b6000805460405173ffffffffffffffffffffffffffffffffffffffff808516939216917f8be0079c531659141344cd1fd0a4f28419497f9722a3daafe3b4186f6b6457e091a3600080547fffffffffffffffffffffffff00000000000000000000000000000000000000001673ffffffffffffffffffffffffffffffffffffffff92909216919091179055565b6000805473ffffffffffffffffffffffffffffffffffffffff16331461075457600080fd5b5073ffffffffffffffffffffffffffffffffffffffff8116600090815260016020526040902054349061078d908263ffffffff6107f016565b73ffffffffffffffffffffffffffffffffffffffff8316600081815260016020908152604091829020939093558051848152905191927f2da466a7b24304f47e87fa2e1e5a81b9831ce54fec19055ce277ca2f39ba42c492918290030190a25050565b818101828110156107fd57fe5b929150505600a165627a7a72305820865737643a3b4678d6b2eb8bedc478d5bc763057c504b8ae369f65d7256c9ca30029",
  "source": "pragma solidity ^0.4.18;\n\nimport './TrustFeedWallet.sol';\nimport './TrustFeedToken.sol';\nimport './TrustFeedCrowdsale.sol';\n\n// This is a 'wrapper'. It constructs the token, then the crowdsale.\ncontract TrustFeedCampaign {\n  TrustFeedWallet public wallet;  \n  TrustFeedToken public token;\n  TrustFeedCrowdsale public crowdsale;\n\n  constructor(\n    // The owners of the token\n    address[] _owners,\n    // Token name\n    string _name,\n    // Token symbol\n    string _symbol,\n    // The decimals for token\n    uint8 _decimals,\n    // The initial supply for the token\n    uint256 _initialSupply,\n    // Start time of crowdsale\n    uint256 _openingTime,\n    // End of crowdsale\n    uint256 _closingTime,\n    // Price\n    uint256 _rate,\n    // The hard cap\n    uint256 _cap,\n    // The soft cap\n    uint256 _goal\n  ) public {\n\n    wallet = new TrustFeedWallet(\n      _owners,\n      2);\n      \n    // Create the token\n    token = new TrustFeedToken(\n      _name,\n      _symbol,\n      _decimals,\n      _initialSupply,\n      wallet);\n\n    // Create the crowdsale\n    crowdsale = new TrustFeedCrowdsale(\n      _openingTime,\n      _closingTime,\n      _rate,\n      wallet,\n      _cap,\n      token,\n      _goal);\n  }\n}\n",
  "sourcePath": "/home/wetterj/truffle/contracts/TrustFeedCampaign.sol",
  "compiler": {
    "name": "solc",
    "version": "0.4.24+commit.e67f0147.Emscripten.clang"
  },
  "schemaVersion": "2.0.1",
  "updatedAt": "2018-08-22T07:40:16.127Z"
}