{
  "contractName": "TrustFeedMintedCampaign",
  "abi": [
    {
      "constant": true,
      "inputs": [],
      "name": "wallet",
      "outputs": [
        {
          "name": "",
          "type": "address"
        }
      ],
      "payable": false,
      "stateMutability": "view",
      "type": "function"
    },
    {
      "constant": true,
      "inputs": [],
      "name": "crowdsale",
      "outputs": [
        {
          "name": "",
          "type": "address"
        }
      ],
      "payable": false,
      "stateMutability": "view",
      "type": "function"
    },
    {
      "constant": true,
      "inputs": [],
      "name": "token",
      "outputs": [
        {
          "name": "",
          "type": "address"
        }
      ],
      "payable": false,
      "stateMutability": "view",
      "type": "function"
    },
    {
      "inputs": [
        {
          "name": "_owners",
          "type": "address[]"
        },
        {
          "name": "_name",
          "type": "string"
        },
        {
          "name": "_symbol",
          "type": "string"
        },
        {
          "name": "_decimals",
          "type": "uint8"
        },
        {
          "name": "_openingTime",
          "type": "uint256"
        },
        {
          "name": "_closingTime",
          "type": "uint256"
        },
        {
          "name": "_rate",
          "type": "uint256"
        },
        {
          "name": "_cap",
          "type": "uint256"
        },
        {
          "name": "_goal",
          "type": "uint256"
        },
        {
          "name": "_campaignId",
          "type": "string"
        }
      ],
      "payable": false,
      "stateMutability": "nonpayable",
      "type": "constructor"
    },
    {
      "anonymous": false,
      "inputs": [
        {
          "indexed": false,
          "name": "campaignAddress",
          "type": "address"
        },
        {
          "indexed": false,
          "name": "campaignId",
          "type": "string"
        }
      ],
      "name": "NewCampaign",
      "type": "event"
    }
  ],
  "bytecode": "0x608060405234801561001057600080fd5b506040516140f83803806140f883398101604090815281516020830151918301516060840151608085015160a086015160c087015160e08801516101008901516101208a0151978a019998890198968701979596949593949293919290910189600261007a6104e9565b60208082018390526040808352845190830152835182916060830191868201910280838360005b838110156100b95781810151838201526020016100a1565b505050509050019350505050604051809103906000f0801580156100e1573d6000803e3d6000fd5b5060008054600160a060020a031916600160a060020a039290921691909117905588888861010d6104f9565b60ff82166040820152606080825284519082015283518190602080830191608084019188019080838360005b83811015610151578181015183820152602001610139565b50505050905090810190601f16801561017e5780820380516001836020036101000a031916815260200191505b50838103825285518152855160209182019187019080838360005b838110156101b1578181015183820152602001610199565b50505050905090810190601f1680156101de5780820380516001836020036101000a031916815260200191505b5095505050505050604051809103906000f080158015610202573d6000803e3d6000fd5b5060018054600160a060020a031916600160a060020a03928316179081905560005488928892889282169188911687610239610509565b9687526020870195909552604080870194909452600160a060020a03928316606087015260808601919091521660a084015260c0830191909152519081900360e001906000f080158015610291573d6000803e3d6000fd5b5060028054600160a060020a031916600160a060020a039283161790819055600154604080517f983b2d5600000000000000000000000000000000000000000000000000000000815292841660048401525192169163983b2d569160248082019260009290919082900301818387803b15801561030d57600080fd5b505af1158015610321573d6000803e3d6000fd5b505060015460008054604080517f983b2d56000000000000000000000000000000000000000000000000000000008152600160a060020a039283166004820152905191909316945063983b2d56935060248084019382900301818387803b15801561038b57600080fd5b505af115801561039f573d6000803e3d6000fd5b50505050600160009054906101000a9004600160a060020a0316600160a060020a031663986502756040518163ffffffff167c0100000000000000000000000000000000000000000000000000000000028152600401600060405180830381600087803b15801561040f57600080fd5b505af1158015610423573d6000803e3d6000fd5b505050507fb9fb0767eb7828b47fec6477452ea477847084b605dab5774154f8a1f4a5523c30826040518083600160a060020a0316600160a060020a0316815260200180602001828103825283818151815260200191508051906020019080838360005b8381101561049f578181015183820152602001610487565b50505050905090810190601f1680156104cc5780820380516001836020036101000a031916815260200191505b50935050505060405180910390a150505050505050505050610519565b60405161185c8061066b83390190565b604051610f1e80611ec783390190565b60405161131380612de583390190565b610143806105286000396000f3006080604052600436106100565763ffffffff7c0100000000000000000000000000000000000000000000000000000000600035041663521eb273811461005b5780639c1e03a014610099578063fc0c546a146100ae575b600080fd5b34801561006757600080fd5b506100706100c3565b6040805173ffffffffffffffffffffffffffffffffffffffff9092168252519081900360200190f35b3480156100a557600080fd5b506100706100df565b3480156100ba57600080fd5b506100706100fb565b60005473ffffffffffffffffffffffffffffffffffffffff1681565b60025473ffffffffffffffffffffffffffffffffffffffff1681565b60015473ffffffffffffffffffffffffffffffffffffffff16815600a165627a7a723058200e2b4eaa8c4add2e097ca1edc8fb282bde9949271d866712847df73a38971cc7002960806040523480156200001157600080fd5b506040516200185c3803806200185c8339810160405280516020820151910180519091906000908260048211806200004857508181115b8062000052575080155b806200005c575081155b156200006757600080fd5b600092505b84518310156200013b576002600086858151811015156200008957fe5b6020908102909101810151600160a060020a031682528101919091526040016000205460ff1680620000dc57508483815181101515620000c557fe5b90602001906020020151600160a060020a03166000145b15620000e757600080fd5b6001600260008786815181101515620000fc57fe5b602090810291909101810151600160a060020a03168252810191909152604001600020805460ff1916911515919091179055600192909201916200006c565b84516200015090600390602088019062000162565b50505060049190915550620001f69050565b828054828255906000526020600020908101928215620001ba579160200282015b82811115620001ba5782518254600160a060020a031916600160a060020a0390911617825560209092019160019091019062000183565b50620001c8929150620001cc565b5090565b620001f391905b80821115620001c8578054600160a060020a0319168155600101620001d3565b90565b61165680620002066000396000f30060806040526004361061011c5763ffffffff7c0100000000000000000000000000000000000000000000000000000000600035041663025e7c27811461015e578063173825d91461019f57806320ea8d86146101cd5780632f54bf6e146101e55780633411c81c1461022757806354741525146102585780637065cb4814610289578063784547a7146102b75780638b51d13f146102cf5780639ace38c2146102e7578063a0e67e2b146103bc578063a8abe69a14610421578063b5dc40c314610446578063b77bf6001461045e578063ba51a6df14610473578063c01a8c841461048b578063c6427474146104a3578063d74f8edd14610519578063dc8452cd1461052e578063e20056e614610543578063ee22610b14610577575b600034111561015c5760408051348152905133917fe1fffcc4923d04b559f4d29a8bfc6cda04eb5b0d3c460751c2402c5c5cc9109c919081900360200190a25b005b34801561016a57600080fd5b5061017660043561058f565b6040805173ffffffffffffffffffffffffffffffffffffffff9092168252519081900360200190f35b3480156101ab57600080fd5b5061015c73ffffffffffffffffffffffffffffffffffffffff600435166105c4565b3480156101d957600080fd5b5061015c6004356107a3565b3480156101f157600080fd5b5061021373ffffffffffffffffffffffffffffffffffffffff6004351661085d565b604080519115158252519081900360200190f35b34801561023357600080fd5b5061021360043573ffffffffffffffffffffffffffffffffffffffff60243516610872565b34801561026457600080fd5b5061027760043515156024351515610892565b60408051918252519081900360200190f35b34801561029557600080fd5b5061015c73ffffffffffffffffffffffffffffffffffffffff600435166108fe565b3480156102c357600080fd5b50610213600435610a4d565b3480156102db57600080fd5b50610277600435610ade565b3480156102f357600080fd5b506102ff600435610b5a565b604051808573ffffffffffffffffffffffffffffffffffffffff1673ffffffffffffffffffffffffffffffffffffffff1681526020018481526020018060200183151515158152602001828103825284818151815260200191508051906020019080838360005b8381101561037e578181015183820152602001610366565b50505050905090810190601f1680156103ab5780820380516001836020036101000a031916815260200191505b509550505050505060405180910390f35b3480156103c857600080fd5b506103d1610c25565b60408051602080825283518183015283519192839290830191858101910280838360005b8381101561040d5781810151838201526020016103f5565b505050509050019250505060405180910390f35b34801561042d57600080fd5b506103d160043560243560443515156064351515610c95565b34801561045257600080fd5b506103d1600435610dce565b34801561046a57600080fd5b50610277610f7b565b34801561047f57600080fd5b5061015c600435610f81565b34801561049757600080fd5b5061015c600435610ff8565b3480156104af57600080fd5b50604080516020600460443581810135601f810184900484028501840190955284845261027794823573ffffffffffffffffffffffffffffffffffffffff169460248035953695946064949201919081908401838280828437509497506110d09650505050505050565b34801561052557600080fd5b506102776110ef565b34801561053a57600080fd5b506102776110f4565b34801561054f57600080fd5b5061015c73ffffffffffffffffffffffffffffffffffffffff600435811690602435166110fa565b34801561058357600080fd5b5061015c6004356112ec565b600380548290811061059d57fe5b60009182526020909120015473ffffffffffffffffffffffffffffffffffffffff16905081565b60003330146105d257600080fd5b73ffffffffffffffffffffffffffffffffffffffff8216600090815260026020526040902054829060ff16151561060857600080fd5b73ffffffffffffffffffffffffffffffffffffffff83166000908152600260205260408120805460ff1916905591505b60035460001901821015610731578273ffffffffffffffffffffffffffffffffffffffff1660038381548110151561066c57fe5b60009182526020909120015473ffffffffffffffffffffffffffffffffffffffff161415610726576003805460001981019081106106a657fe5b6000918252602090912001546003805473ffffffffffffffffffffffffffffffffffffffff90921691849081106106d957fe5b9060005260206000200160006101000a81548173ffffffffffffffffffffffffffffffffffffffff021916908373ffffffffffffffffffffffffffffffffffffffff160217905550610731565b600190910190610638565b600380546000190190610744908261156e565b50600354600454111561075d5760035461075d90610f81565b60405173ffffffffffffffffffffffffffffffffffffffff8416907f8001553a916ef2f495d26a907cc54d96ed840d7bda71e73194bf5a9df7a76b9090600090a2505050565b3360008181526002602052604090205460ff1615156107c157600080fd5b60008281526001602090815260408083203380855292529091205483919060ff1615156107ed57600080fd5b600084815260208190526040902060030154849060ff161561080e57600080fd5b6000858152600160209081526040808320338085529252808320805460ff191690555187927ff6a317157440607f36269043eb55f1287a5a19ba2216afeab88cd46cbcfb88e991a35050505050565b60026020526000908152604090205460ff1681565b600160209081526000928352604080842090915290825290205460ff1681565b6000805b6005548110156108f7578380156108bf575060008181526020819052604090206003015460ff16155b806108e357508280156108e3575060008181526020819052604090206003015460ff165b156108ef576001820191505b600101610896565b5092915050565b33301461090a57600080fd5b73ffffffffffffffffffffffffffffffffffffffff8116600090815260026020526040902054819060ff161561093f57600080fd5b8173ffffffffffffffffffffffffffffffffffffffff8116151561096257600080fd5b600380549050600101600454600482118061097c57508181115b80610985575080155b8061098e575081155b1561099857600080fd5b73ffffffffffffffffffffffffffffffffffffffff8516600081815260026020526040808220805460ff1916600190811790915560038054918201815583527fc2575a0e9e593c00f959f8c92f12db2869c3395a3b0502d05e2516446f71f85b0180547fffffffffffffffffffffffff00000000000000000000000000000000000000001684179055517ff39e6e1eb0edcf53c221607b54b00cd28f3196fed0a24994dc308b8f611b682d9190a25050505050565b600080805b600354811015610ad75760008481526001602052604081206003805491929184908110610a7b57fe5b600091825260208083209091015473ffffffffffffffffffffffffffffffffffffffff16835282019290925260400190205460ff1615610abc576001820191505b600454821415610acf5760019250610ad7565b600101610a52565b5050919050565b6000805b600354811015610b545760008381526001602052604081206003805491929184908110610b0b57fe5b600091825260208083209091015473ffffffffffffffffffffffffffffffffffffffff16835282019290925260400190205460ff1615610b4c576001820191505b600101610ae2565b50919050565b6000602081815291815260409081902080546001808301546002808501805487516101009582161595909502600019011691909104601f810188900488028401880190965285835273ffffffffffffffffffffffffffffffffffffffff90931695909491929190830182828015610c125780601f10610be757610100808354040283529160200191610c12565b820191906000526020600020905b815481529060010190602001808311610bf557829003601f168201915b5050506003909301549192505060ff1684565b60606003805480602002602001604051908101604052809291908181526020018280548015610c8a57602002820191906000526020600020905b815473ffffffffffffffffffffffffffffffffffffffff168152600190910190602001808311610c5f575b505050505090505b90565b606080600080600554604051908082528060200260200182016040528015610cc7578160200160208202803883390190505b50925060009150600090505b600554811015610d4e57858015610cfc575060008181526020819052604090206003015460ff16155b80610d205750848015610d20575060008181526020819052604090206003015460ff165b15610d4657808383815181101515610d3457fe5b60209081029091010152600191909101905b600101610cd3565b878703604051908082528060200260200182016040528015610d7a578160200160208202803883390190505b5093508790505b86811015610dc3578281815181101515610d9757fe5b9060200190602002015184898303815181101515610db157fe5b60209081029091010152600101610d81565b505050949350505050565b606080600080600380549050604051908082528060200260200182016040528015610e03578160200160208202803883390190505b50925060009150600090505b600354811015610ee75760008581526001602052604081206003805491929184908110610e3857fe5b600091825260208083209091015473ffffffffffffffffffffffffffffffffffffffff16835282019290925260400190205460ff1615610edf576003805482908110610e8057fe5b600091825260209091200154835173ffffffffffffffffffffffffffffffffffffffff90911690849084908110610eb357fe5b73ffffffffffffffffffffffffffffffffffffffff909216602092830290910190910152600191909101905b600101610e0f565b81604051908082528060200260200182016040528015610f11578160200160208202803883390190505b509350600090505b81811015610f73578281815181101515610f2f57fe5b906020019060200201518482815181101515610f4757fe5b73ffffffffffffffffffffffffffffffffffffffff909216602092830290910190910152600101610f19565b505050919050565b60055481565b333014610f8d57600080fd5b600354816004821180610f9f57508181115b80610fa8575080155b80610fb1575081155b15610fbb57600080fd5b60048390556040805184815290517fa3f1ee9126a074d9326c682f561767f710e927faa811f7a99829d49dc421797a9181900360200190a1505050565b3360008181526002602052604090205460ff16151561101657600080fd5b600082815260208190526040902054829073ffffffffffffffffffffffffffffffffffffffff16151561104857600080fd5b60008381526001602090815260408083203380855292529091205484919060ff161561107357600080fd5b6000858152600160208181526040808420338086529252808420805460ff1916909317909255905187927f4a504a94899432a9846e1aa406dceb1bcfd538bb839071d49d1e5e23f5be30ef91a36110c9856112ec565b5050505050565b60006110dd848484611459565b90506110e881610ff8565b9392505050565b600481565b60045481565b600033301461110857600080fd5b73ffffffffffffffffffffffffffffffffffffffff8316600090815260026020526040902054839060ff16151561113e57600080fd5b73ffffffffffffffffffffffffffffffffffffffff8316600090815260026020526040902054839060ff161561117357600080fd5b600092505b600354831015611238578473ffffffffffffffffffffffffffffffffffffffff166003848154811015156111a857fe5b60009182526020909120015473ffffffffffffffffffffffffffffffffffffffff16141561122d57836003848154811015156111e057fe5b9060005260206000200160006101000a81548173ffffffffffffffffffffffffffffffffffffffff021916908373ffffffffffffffffffffffffffffffffffffffff160217905550611238565b600190920191611178565b73ffffffffffffffffffffffffffffffffffffffff808616600081815260026020526040808220805460ff1990811690915593881682528082208054909416600117909355915190917f8001553a916ef2f495d26a907cc54d96ed840d7bda71e73194bf5a9df7a76b9091a260405173ffffffffffffffffffffffffffffffffffffffff8516907ff39e6e1eb0edcf53c221607b54b00cd28f3196fed0a24994dc308b8f611b682d90600090a25050505050565b600081815260208190526040812060030154829060ff161561130d57600080fd5b61131683610a4d565b15611454576000838152602081905260409081902060038101805460ff1916600190811790915581548183015493516002808501805495985073ffffffffffffffffffffffffffffffffffffffff909316959492939192839285926000199183161561010002919091019091160480156113d15780601f106113a6576101008083540402835291602001916113d1565b820191906000526020600020905b8154815290600101906020018083116113b457829003601f168201915b505091505060006040518083038185875af1925050501561141c5760405183907f33e13ecb54c3076d8e8bb8c2881800a4d972b792045ffae98fdf46df365fed7590600090a2611454565b60405183907f526441bb6c1aba3c9a4a6ca1d6545da9c2333c8c48343ef398eb858d72b7923690600090a260038201805460ff191690555b505050565b60008373ffffffffffffffffffffffffffffffffffffffff8116151561147e57600080fd5b6005546040805160808101825273ffffffffffffffffffffffffffffffffffffffff8881168252602080830189815283850189815260006060860181905287815280845295909520845181547fffffffffffffffffffffffff00000000000000000000000000000000000000001694169390931783555160018301559251805194965091939092611516926002850192910190611592565b50606091909101516003909101805460ff191691151591909117905560058054600101905560405182907fc0ba8fe4b176c1714197d43b9cc6bcf797a4a7461c5fe8d0ef6e184ae7601e5190600090a2509392505050565b81548183558181111561145457600083815260209020611454918101908301611610565b828054600181600116156101000203166002900490600052602060002090601f016020900481019282601f106115d357805160ff1916838001178555611600565b82800160010185558215611600579182015b828111156116005782518255916020019190600101906115e5565b5061160c929150611610565b5090565b610c9291905b8082111561160c57600081556001016116165600a165627a7a72305820bc8c91c440ca529984441e4a2ce8ee1a4b2c8e4efb678ece425d19280b66f72d002960806040526004805460ff191690553480156200001b57600080fd5b5060405162000f1e38038062000f1e83398101604090815281516020830151918301519083019291909101906200006260033364010000000062000c61620000ab82021704565b825162000077906005906020860190620000e6565b5081516200008d906006906020850190620000e6565b506007805460ff191660ff92909216919091179055506200018b9050565b600160a060020a0381161515620000c157600080fd5b600160a060020a0316600090815260209190915260409020805460ff19166001179055565b828054600181600116156101000203166002900490600052602060002090601f016020900481019282601f106200012957805160ff191683800117855562000159565b8280016001018555821562000159579182015b82811115620001595782518255916020019190600101906200013c565b50620001679291506200016b565b5090565b6200018891905b8082111562000167576000815560010162000172565b90565b610d83806200019b6000396000f3006080604052600436106100f05763ffffffff7c010000000000000000000000000000000000000000000000000000000060003504166305d2035b81146100f557806306fdde031461011e578063095ea7b3146101a857806318160ddd146101d957806323b872dd14610200578063313ce56714610237578063395093511461026257806340c10f191461029357806370a08231146102c45780637d64bcb4146102f257806395d89b4114610307578063983b2d561461031c578063986502751461034c578063a457c2d714610361578063a9059cbb14610392578063aa271e1a146103c3578063dd62ed3e146103f1575b600080fd5b34801561010157600080fd5b5061010a610425565b604080519115158252519081900360200190f35b34801561012a57600080fd5b5061013361042e565b6040805160208082528351818301528351919283929083019185019080838360005b8381101561016d578181015183820152602001610155565b50505050905090810190601f16801561019a5780820380516001836020036101000a031916815260200191505b509250505060405180910390f35b3480156101b457600080fd5b5061010a73ffffffffffffffffffffffffffffffffffffffff600435166024356104bc565b3480156101e557600080fd5b506101ee610554565b60408051918252519081900360200190f35b34801561020c57600080fd5b5061010a73ffffffffffffffffffffffffffffffffffffffff6004358116906024351660443561055a565b34801561024357600080fd5b5061024c61072a565b6040805160ff9092168252519081900360200190f35b34801561026e57600080fd5b5061010a73ffffffffffffffffffffffffffffffffffffffff60043516602435610733565b34801561029f57600080fd5b5061010a73ffffffffffffffffffffffffffffffffffffffff6004351660243561080a565b3480156102d057600080fd5b506101ee73ffffffffffffffffffffffffffffffffffffffff60043516610843565b3480156102fe57600080fd5b5061010a61086b565b34801561031357600080fd5b506101336108cd565b34801561032857600080fd5b5061034a73ffffffffffffffffffffffffffffffffffffffff60043516610928565b005b34801561035857600080fd5b5061034a610991565b34801561036d57600080fd5b5061010a73ffffffffffffffffffffffffffffffffffffffff600435166024356109a4565b34801561039e57600080fd5b5061010a73ffffffffffffffffffffffffffffffffffffffff60043516602435610a09565b3480156103cf57600080fd5b5061010a73ffffffffffffffffffffffffffffffffffffffff60043516610b0f565b3480156103fd57600080fd5b506101ee73ffffffffffffffffffffffffffffffffffffffff60043581169060243516610b28565b60045460ff1690565b6005805460408051602060026001851615610100026000190190941693909304601f810184900484028201840190925281815292918301828280156104b45780601f10610489576101008083540402835291602001916104b4565b820191906000526020600020905b81548152906001019060200180831161049757829003601f168201915b505050505081565b600073ffffffffffffffffffffffffffffffffffffffff831615156104e057600080fd5b33600081815260016020908152604080832073ffffffffffffffffffffffffffffffffffffffff881680855290835292819020869055805186815290519293927f8c5be1e5ebec7d5bd14f71427d1e84f3dd0314c0f7b2291e5b200ac8c7c3b925929181900390910190a350600192915050565b60025490565b73ffffffffffffffffffffffffffffffffffffffff831660009081526020819052604081205482111561058c57600080fd5b73ffffffffffffffffffffffffffffffffffffffff841660009081526001602090815260408083203384529091529020548211156105c957600080fd5b73ffffffffffffffffffffffffffffffffffffffff831615156105eb57600080fd5b73ffffffffffffffffffffffffffffffffffffffff8416600090815260208190526040902054610621908363ffffffff610b6016565b73ffffffffffffffffffffffffffffffffffffffff8086166000908152602081905260408082209390935590851681522054610663908363ffffffff610b7716565b73ffffffffffffffffffffffffffffffffffffffff8085166000908152602081815260408083209490945591871681526001825282812033825290915220546106b2908363ffffffff610b6016565b73ffffffffffffffffffffffffffffffffffffffff808616600081815260016020908152604080832033845282529182902094909455805186815290519287169391927fddf252ad1be2c89b69c2b068fc378daa952ba7f163c4a11628f55a4df523b3ef929181900390910190a35060019392505050565b60075460ff1681565b600073ffffffffffffffffffffffffffffffffffffffff8316151561075757600080fd5b33600090815260016020908152604080832073ffffffffffffffffffffffffffffffffffffffff87168452909152902054610798908363ffffffff610b7716565b33600081815260016020908152604080832073ffffffffffffffffffffffffffffffffffffffff89168085529083529281902085905580519485525191937f8c5be1e5ebec7d5bd14f71427d1e84f3dd0314c0f7b2291e5b200ac8c7c3b925929081900390910190a350600192915050565b600061081533610b0f565b151561082057600080fd5b60045460ff161561083057600080fd5b61083a8383610b90565b50600192915050565b73ffffffffffffffffffffffffffffffffffffffff1660009081526020819052604090205490565b600061087633610b0f565b151561088157600080fd5b60045460ff161561089157600080fd5b6004805460ff191660011790556040517fb828d9b5c78095deeeeff2eca2e5d4fe046ce3feb4c99702624a3fd384ad2dbc90600090a150600190565b6006805460408051602060026001851615610100026000190190941693909304601f810184900484028201840190925281815292918301828280156104b45780601f10610489576101008083540402835291602001916104b4565b61093133610b0f565b151561093c57600080fd5b61094d60038263ffffffff610c6116565b60405173ffffffffffffffffffffffffffffffffffffffff8216907f6ae172837ea30b801fbfcdd4108aa1d5bf8ff775444fd70256b44e6bf3dfc3f690600090a250565b6109a260033363ffffffff610cb516565b565b600073ffffffffffffffffffffffffffffffffffffffff831615156109c857600080fd5b33600090815260016020908152604080832073ffffffffffffffffffffffffffffffffffffffff87168452909152902054610798908363ffffffff610b6016565b33600090815260208190526040812054821115610a2557600080fd5b73ffffffffffffffffffffffffffffffffffffffff83161515610a4757600080fd5b33600090815260208190526040902054610a67908363ffffffff610b6016565b336000908152602081905260408082209290925573ffffffffffffffffffffffffffffffffffffffff851681522054610aa6908363ffffffff610b7716565b73ffffffffffffffffffffffffffffffffffffffff8416600081815260208181526040918290209390935580518581529051919233927fddf252ad1be2c89b69c2b068fc378daa952ba7f163c4a11628f55a4df523b3ef9281900390910190a350600192915050565b6000610b2260038363ffffffff610d0616565b92915050565b73ffffffffffffffffffffffffffffffffffffffff918216600090815260016020908152604080832093909416825291909152205490565b60008083831115610b7057600080fd5b5050900390565b600082820183811015610b8957600080fd5b9392505050565b73ffffffffffffffffffffffffffffffffffffffff82161515610bb257600080fd5b600254610bc5908263ffffffff610b7716565b60025573ffffffffffffffffffffffffffffffffffffffff8216600090815260208190526040902054610bfe908263ffffffff610b7716565b73ffffffffffffffffffffffffffffffffffffffff83166000818152602081815260408083209490945583518581529351929391927fddf252ad1be2c89b69c2b068fc378daa952ba7f163c4a11628f55a4df523b3ef9281900390910190a35050565b73ffffffffffffffffffffffffffffffffffffffff81161515610c8357600080fd5b73ffffffffffffffffffffffffffffffffffffffff16600090815260209190915260409020805460ff19166001179055565b73ffffffffffffffffffffffffffffffffffffffff81161515610cd757600080fd5b73ffffffffffffffffffffffffffffffffffffffff16600090815260209190915260409020805460ff19169055565b600073ffffffffffffffffffffffffffffffffffffffff82161515610d2a57600080fd5b5073ffffffffffffffffffffffffffffffffffffffff166000908152602091909152604090205460ff16905600a165627a7a72305820be0908fb8c91c60fc2dfeaa9fc3a64f293a17b1f537c9f90806a9072e8b333c7002960806040526007805460ff1916905534801561001a57600080fd5b5060405160e08061131383398101604090815281516020830151918301516060840151608085015160a086015160c0909601519395929391929091808388888888876000831161006957600080fd5b600160a060020a038216151561007e57600080fd5b600160a060020a038116151561009357600080fd5b60029290925560018054600160a060020a03928316600160a060020a03199182161790915560008054929093169116179055428210156100d257600080fd5b818110156100df57600080fd5b600491909155600555600081116100f557600080fd5b6006556000811161010557600080fd5b610116640100000000610188810204565b61011e610197565b600160a060020a03909116815260405190819003602001906000f08015801561014b573d6000803e3d6000fd5b5060098054600160a060020a031916600160a060020a03929092169190911790556008558281111561017c57600080fd5b505050505050506101a7565b600154600160a060020a031690565b6040516107b880610b5b83390190565b6109a5806101b66000396000f3006080604052600436106100e55763ffffffff7c01000000000000000000000000000000000000000000000000000000006000350416631515bc2b81146100f05780632c4e722e14610119578063355274ea1461014057806340193883146101555780634042b66f1461016a57806347535d7b1461017f5780634b6753bc146101945780634bb278f3146101a95780634f935945146101be578063521eb273146101d35780637d3d652214610211578063b3f05b9714610226578063b7a8807c1461023b578063bffa55d514610250578063ec8ac4d81461027e578063fc0c546a1461029f575b6100ee336102b4565b005b3480156100fc57600080fd5b50610105610363565b604080519115158252519081900360200190f35b34801561012557600080fd5b5061012e61036b565b60408051918252519081900360200190f35b34801561014c57600080fd5b5061012e610371565b34801561016157600080fd5b5061012e610377565b34801561017657600080fd5b5061012e61037d565b34801561018b57600080fd5b50610105610383565b3480156101a057600080fd5b5061012e61039e565b3480156101b557600080fd5b506100ee6103a4565b3480156101ca57600080fd5b50610105610425565b3480156101df57600080fd5b506101e8610439565b6040805173ffffffffffffffffffffffffffffffffffffffff9092168252519081900360200190f35b34801561021d57600080fd5b50610105610455565b34801561023257600080fd5b50610105610462565b34801561024757600080fd5b5061012e61046b565b34801561025c57600080fd5b506100ee73ffffffffffffffffffffffffffffffffffffffff60043516610471565b6100ee73ffffffffffffffffffffffffffffffffffffffff600435166102b4565b3480156102ab57600080fd5b506101e8610525565b3460006102c18383610541565b6102ca82610575565b6003549091506102e0908363ffffffff61059216565b6003556102ed83826105af565b6040805183815260208101839052815173ffffffffffffffffffffffffffffffffffffffff86169233927f6faf93231a456e552dbc9961f58d9713ee4f2e69d15f1975b050ef0911053a7b929081900390910190a361034c8383610571565b6103546105b9565b61035e8383610571565b505050565b600554421190565b60025490565b60065490565b60085490565b60035490565b6000600454421015801561039957506005544211155b905090565b60055490565b60075460ff16156103b457600080fd5b6103bc610363565b15156103c757600080fd5b6103cf61062c565b6040517f9270cc390c096600a1c17c44345a1ba689fafd99d97487b10cfccf86cf73183690600090a1600780547fffffffffffffffffffffffffffffffffffffffffffffffffffffffffffffff00166001179055565b600060065461043261037d565b1015905090565b60015473ffffffffffffffffffffffffffffffffffffffff1690565b600060085461043261037d565b60075460ff1690565b60045490565b610479610462565b151561048457600080fd5b61048c610455565b1561049657600080fd5b600954604080517f51cff8d900000000000000000000000000000000000000000000000000000000815273ffffffffffffffffffffffffffffffffffffffff8481166004830152915191909216916351cff8d991602480830192600092919082900301818387803b15801561050a57600080fd5b505af115801561051e573d6000803e3d6000fd5b5050505050565b60005473ffffffffffffffffffffffffffffffffffffffff1690565b61054b828261081f565b6006546105668261055a61037d565b9063ffffffff61059216565b111561057157600080fd5b5050565b600061058c6002548361083c90919063ffffffff16565b92915050565b6000828201838110156105a457600080fd5b8091505b5092915050565b610571828261086a565b600954604080517ff340fa01000000000000000000000000000000000000000000000000000000008152336004820152905173ffffffffffffffffffffffffffffffffffffffff9092169163f340fa01913491602480830192600092919082900301818588803b15801561050a57600080fd5b610634610455565b1561077a57600960009054906101000a900473ffffffffffffffffffffffffffffffffffffffff1673ffffffffffffffffffffffffffffffffffffffff166343d726d66040518163ffffffff167c0100000000000000000000000000000000000000000000000000000000028152600401600060405180830381600087803b1580156106bf57600080fd5b505af11580156106d3573d6000803e3d6000fd5b50505050600960009054906101000a900473ffffffffffffffffffffffffffffffffffffffff1673ffffffffffffffffffffffffffffffffffffffff16639af6549a6040518163ffffffff167c0100000000000000000000000000000000000000000000000000000000028152600401600060405180830381600087803b15801561075d57600080fd5b505af1158015610771573d6000803e3d6000fd5b50505050610819565b600960009054906101000a900473ffffffffffffffffffffffffffffffffffffffff1673ffffffffffffffffffffffffffffffffffffffff16638c52dc416040518163ffffffff167c0100000000000000000000000000000000000000000000000000000000028152600401600060405180830381600087803b15801561080057600080fd5b505af1158015610814573d6000803e3d6000fd5b505050505b61081d5b565b610827610383565b151561083257600080fd5b610571828261094b565b60008083151561084f57600091506105a8565b5082820282848281151561085f57fe5b04146105a457600080fd5b610872610525565b73ffffffffffffffffffffffffffffffffffffffff166340c10f1983836040518363ffffffff167c0100000000000000000000000000000000000000000000000000000000028152600401808373ffffffffffffffffffffffffffffffffffffffff1673ffffffffffffffffffffffffffffffffffffffff16815260200182815260200192505050602060405180830381600087803b15801561091457600080fd5b505af1158015610928573d6000803e3d6000fd5b505050506040513d602081101561093e57600080fd5b5051151561057157600080fd5b73ffffffffffffffffffffffffffffffffffffffff8216151561096d57600080fd5b80151561057157600080fd00a165627a7a72305820625e809042943ec08d8890a143c4b9247806188a445be3ccd481f02a8816bdfa0029608060405234801561001057600080fd5b506040516020806107b8833981016040525160008054600160a060020a03191633179055600160a060020a038116151561004957600080fd5b6002805460ff19600160a060020a03939093166101000261010060a860020a031990911617919091169055610735806100836000396000f3006080604052600436106100ae5763ffffffff7c01000000000000000000000000000000000000000000000000000000006000350416632348238c81146100b357806338af3eed146100e357806343d726d61461012157806351cff8d914610136578063685ca194146101645780638c52dc41146101a65780639af6549a146101bb578063c19d93fb146101d0578063c6dbdf6114610209578063e3a9db1a1461021e578063f340fa011461025e575b600080fd5b3480156100bf57600080fd5b506100e173ffffffffffffffffffffffffffffffffffffffff6004351661027f565b005b3480156100ef57600080fd5b506100f861030c565b6040805173ffffffffffffffffffffffffffffffffffffffff9092168252519081900360200190f35b34801561012d57600080fd5b506100e161032d565b34801561014257600080fd5b506100e173ffffffffffffffffffffffffffffffffffffffff600435166103a5565b34801561017057600080fd5b5061019273ffffffffffffffffffffffffffffffffffffffff600435166103c5565b604080519115158252519081900360200190f35b3480156101b257600080fd5b506100e16103e1565b3480156101c757600080fd5b506100e161045a565b3480156101dc57600080fd5b506101e56104c3565b604051808260028111156101f557fe5b60ff16815260200191505060405180910390f35b34801561021557600080fd5b506100f86104cc565b34801561022a57600080fd5b5061024c73ffffffffffffffffffffffffffffffffffffffff600435166104e8565b60408051918252519081900360200190f35b6100e173ffffffffffffffffffffffffffffffffffffffff60043516610510565b60005473ffffffffffffffffffffffffffffffffffffffff1633146102a357600080fd5b73ffffffffffffffffffffffffffffffffffffffff811615156102c557600080fd5b600080547fffffffffffffffffffffffff00000000000000000000000000000000000000001673ffffffffffffffffffffffffffffffffffffffff92909216919091179055565b600254610100900473ffffffffffffffffffffffffffffffffffffffff1690565b60005473ffffffffffffffffffffffffffffffffffffffff16331461035157600080fd5b60006002805460ff169081111561036457fe5b1461036e57600080fd5b6002805460ff1916811790556040517f1cdde67b72a90f19919ac732a437ac2f7a10fc128d28c2a6e525d89ce5cd9d3a90600090a1565b6103ae816103c5565b15156103b957600080fd5b6103c281610536565b50565b600060016002805460ff16908111156103da57fe5b1492915050565b60005473ffffffffffffffffffffffffffffffffffffffff16331461040557600080fd5b60006002805460ff169081111561041857fe5b1461042257600080fd5b6002805460ff191660011790556040517f599d8e5a83cffb867d051598c4d70e805d59802d8081c1c7d6dffc5b6aca2b8990600090a1565b6002805460ff168181111561046b57fe5b1461047557600080fd5b60025460405173ffffffffffffffffffffffffffffffffffffffff6101009092049190911690303180156108fc02916000818181858888f193505050501580156103c2573d6000803e3d6000fd5b60025460ff1690565b60005473ffffffffffffffffffffffffffffffffffffffff1690565b73ffffffffffffffffffffffffffffffffffffffff1660009081526001602052604090205490565b60006002805460ff169081111561052357fe5b1461052d57600080fd5b6103c28161062f565b6000805473ffffffffffffffffffffffffffffffffffffffff16331461055b57600080fd5b5073ffffffffffffffffffffffffffffffffffffffff8116600090815260016020526040902054303181111561058d57fe5b73ffffffffffffffffffffffffffffffffffffffff82166000818152600160205260408082208290555183156108fc0291849190818181858888f193505050501580156105de573d6000803e3d6000fd5b5060408051828152905173ffffffffffffffffffffffffffffffffffffffff8416917f7084f5476618d8e60b11ef0d7d3f06914655adb8793e28ff7f018d4c76d505d5919081900360200190a25050565b6000805473ffffffffffffffffffffffffffffffffffffffff16331461065457600080fd5b5073ffffffffffffffffffffffffffffffffffffffff8116600090815260016020526040902054349061068d908263ffffffff6106f016565b73ffffffffffffffffffffffffffffffffffffffff8316600081815260016020908152604091829020939093558051848152905191927f2da466a7b24304f47e87fa2e1e5a81b9831ce54fec19055ce277ca2f39ba42c492918290030190a25050565b60008282018381101561070257600080fd5b93925050505600a165627a7a7230582098f13855a4569001a3e6ace260832298feee26f193e3975fb8666bf37c665e720029",
  "source": "pragma solidity ^0.4.18;\n\nimport './TrustFeedWallet.sol';\nimport './TrustFeedMintableToken.sol';\nimport './TrustFeedMintedCrowdsale.sol';\n\n// This is a 'wrapper'. It constructs the token, then the crowdsale.\ncontract TrustFeedMintedCampaign {\n  TrustFeedWallet public wallet;  \n  TrustFeedMintableToken public token;\n  TrustFeedMintedCrowdsale public crowdsale;\n\n  event NewCampaign(\n    address campaignAddress,\n    string campaignId\n  );\n\n  constructor(\n    // The owners of the token\n    address[] _owners,\n    // Token name\n    string _name,\n    // Token symbol\n    string _symbol,\n    // The decimals for token\n    uint8 _decimals,\n    // Start time of crowdsale\n    uint256 _openingTime,\n    // End of crowdsale\n    uint256 _closingTime,\n    // Price\n    uint256 _rate,\n    // The hard cap\n    uint256 _cap,\n    // The soft cap\n    uint256 _goal,\n    // The campaign id\n    string _campaignId\n  ) public {\n\n    wallet = new TrustFeedWallet(\n      _owners,\n      2);\n      \n    // Create the token\n    token = new TrustFeedMintableToken(\n      _name,\n      _symbol,\n      _decimals);\n\n    // Create the crowdsale\n    crowdsale = new TrustFeedMintedCrowdsale(\n      _openingTime,\n      _closingTime,\n      _rate,\n      wallet,\n      _cap,\n      token,\n      _goal);\n\n    // Allow crowdsale to mint tokens\n    token.addMinter(crowdsale);\n    token.addMinter(wallet);\n    token.renounceMinter();\n\n    emit NewCampaign(this, _campaignId);\n  }\n}\n",
  "compiler": {
    "name": "solc",
    "version": "0.4.24+commit.e67f0147.Emscripten.clang"
  },
  "schemaVersion": "2.0.1",
  "updatedAt": "2018-10-11T07:52:10.587Z"
}