{
  "contractName": "TrustFeedCrowdsale",
  "abi": [
    {
      "constant": true,
      "inputs": [],
      "name": "hasClosed",
      "outputs": [
        {
          "name": "",
          "type": "bool"
        }
      ],
      "payable": false,
      "stateMutability": "view",
      "type": "function"
    },
    {
      "constant": true,
      "inputs": [],
      "name": "rate",
      "outputs": [
        {
          "name": "",
          "type": "uint256"
        }
      ],
      "payable": false,
      "stateMutability": "view",
      "type": "function"
    },
    {
      "constant": true,
      "inputs": [],
      "name": "cap",
      "outputs": [
        {
          "name": "",
          "type": "uint256"
        }
      ],
      "payable": false,
      "stateMutability": "view",
      "type": "function"
    },
    {
      "constant": true,
      "inputs": [],
      "name": "goal",
      "outputs": [
        {
          "name": "",
          "type": "uint256"
        }
      ],
      "payable": false,
      "stateMutability": "view",
      "type": "function"
    },
    {
      "constant": true,
      "inputs": [],
      "name": "weiRaised",
      "outputs": [
        {
          "name": "",
          "type": "uint256"
        }
      ],
      "payable": false,
      "stateMutability": "view",
      "type": "function"
    },
    {
      "constant": true,
      "inputs": [],
      "name": "isOpen",
      "outputs": [
        {
          "name": "",
          "type": "bool"
        }
      ],
      "payable": false,
      "stateMutability": "view",
      "type": "function"
    },
    {
      "constant": true,
      "inputs": [],
      "name": "closingTime",
      "outputs": [
        {
          "name": "",
          "type": "uint256"
        }
      ],
      "payable": false,
      "stateMutability": "view",
      "type": "function"
    },
    {
      "constant": false,
      "inputs": [],
      "name": "finalize",
      "outputs": [],
      "payable": false,
      "stateMutability": "nonpayable",
      "type": "function"
    },
    {
      "constant": true,
      "inputs": [],
      "name": "capReached",
      "outputs": [
        {
          "name": "",
          "type": "bool"
        }
      ],
      "payable": false,
      "stateMutability": "view",
      "type": "function"
    },
    {
      "constant": true,
      "inputs": [],
      "name": "wallet",
      "outputs": [
        {
          "name": "",
          "type": "address"
        }
      ],
      "payable": false,
      "stateMutability": "view",
      "type": "function"
    },
    {
      "constant": true,
      "inputs": [],
      "name": "goalReached",
      "outputs": [
        {
          "name": "",
          "type": "bool"
        }
      ],
      "payable": false,
      "stateMutability": "view",
      "type": "function"
    },
    {
      "constant": true,
      "inputs": [],
      "name": "finalized",
      "outputs": [
        {
          "name": "",
          "type": "bool"
        }
      ],
      "payable": false,
      "stateMutability": "view",
      "type": "function"
    },
    {
      "constant": true,
      "inputs": [],
      "name": "openingTime",
      "outputs": [
        {
          "name": "",
          "type": "uint256"
        }
      ],
      "payable": false,
      "stateMutability": "view",
      "type": "function"
    },
    {
      "constant": true,
      "inputs": [],
      "name": "remainingTokens",
      "outputs": [
        {
          "name": "",
          "type": "uint256"
        }
      ],
      "payable": false,
      "stateMutability": "view",
      "type": "function"
    },
    {
      "constant": true,
      "inputs": [],
      "name": "tokenWallet",
      "outputs": [
        {
          "name": "",
          "type": "address"
        }
      ],
      "payable": false,
      "stateMutability": "view",
      "type": "function"
    },
    {
      "constant": false,
      "inputs": [
        {
          "name": "beneficiary",
          "type": "address"
        }
      ],
      "name": "claimRefund",
      "outputs": [],
      "payable": false,
      "stateMutability": "nonpayable",
      "type": "function"
    },
    {
      "constant": false,
      "inputs": [
        {
          "name": "beneficiary",
          "type": "address"
        }
      ],
      "name": "buyTokens",
      "outputs": [],
      "payable": true,
      "stateMutability": "payable",
      "type": "function"
    },
    {
      "constant": true,
      "inputs": [],
      "name": "token",
      "outputs": [
        {
          "name": "",
          "type": "address"
        }
      ],
      "payable": false,
      "stateMutability": "view",
      "type": "function"
    },
    {
      "inputs": [
        {
          "name": "_openingTime",
          "type": "uint256"
        },
        {
          "name": "_closingTime",
          "type": "uint256"
        },
        {
          "name": "_rate",
          "type": "uint256"
        },
        {
          "name": "_wallet",
          "type": "address"
        },
        {
          "name": "_cap",
          "type": "uint256"
        },
        {
          "name": "_token",
          "type": "address"
        },
        {
          "name": "_goal",
          "type": "uint256"
        },
        {
          "name": "_tokenWallet",
          "type": "address"
        }
      ],
      "payable": false,
      "stateMutability": "nonpayable",
      "type": "constructor"
    },
    {
      "payable": true,
      "stateMutability": "payable",
      "type": "fallback"
    },
    {
      "anonymous": false,
      "inputs": [],
      "name": "CrowdsaleFinalized",
      "type": "event"
    },
    {
      "anonymous": false,
      "inputs": [
        {
          "indexed": true,
          "name": "purchaser",
          "type": "address"
        },
        {
          "indexed": true,
          "name": "beneficiary",
          "type": "address"
        },
        {
          "indexed": false,
          "name": "value",
          "type": "uint256"
        },
        {
          "indexed": false,
          "name": "amount",
          "type": "uint256"
        }
      ],
      "name": "TokensPurchased",
      "type": "event"
    }
  ],
  "bytecode": "0x60806040526008805460ff1916905534801561001a57600080fd5b506040516101008061148a83398101604090815281516020830151918301516060840151608085015160a086015160c087015160e090970151949693949293919290919081848989848a8a896000831161007357600080fd5b600160a060020a038216151561008857600080fd5b600160a060020a038116151561009d57600080fd5b60029290925560018054600160a060020a0319908116600160a060020a03938416179091556000805490911692821692909217909155811615156100e057600080fd5b60048054600160a060020a031916600160a060020a03929092169190911790554282101561010d57600080fd5b8181101561011a57600080fd5b6005919091556006556000811161013057600080fd5b6007556000811161014057600080fd5b6101516401000000006101c4810204565b6101596101d3565b600160a060020a03909116815260405190819003602001906000f080158015610186573d6000803e3d6000fd5b50600a8054600160a060020a031916600160a060020a0392909216919091179055600955838211156101b757600080fd5b50505050505050506101e3565b600154600160a060020a031690565b6040516107b880610cd283390190565b610ae0806101f26000396000f3006080604052600436106100fb5763ffffffff7c01000000000000000000000000000000000000000000000000000000006000350416631515bc2b81146101065780632c4e722e1461012f578063355274ea14610156578063401938831461016b5780634042b66f1461018057806347535d7b146101955780634b6753bc146101aa5780634bb278f3146101bf5780634f935945146101d4578063521eb273146101e95780637d3d652214610227578063b3f05b971461023c578063b7a8807c14610251578063bf58390314610266578063bff99c6c1461027b578063bffa55d514610290578063ec8ac4d8146102be578063fc0c546a146102df575b610104336102f4565b005b34801561011257600080fd5b5061011b6103a3565b604080519115158252519081900360200190f35b34801561013b57600080fd5b506101446103ab565b60408051918252519081900360200190f35b34801561016257600080fd5b506101446103b1565b34801561017757600080fd5b506101446103b7565b34801561018c57600080fd5b506101446103bd565b3480156101a157600080fd5b5061011b6103c3565b3480156101b657600080fd5b506101446103de565b3480156101cb57600080fd5b506101046103e4565b3480156101e057600080fd5b5061011b610465565b3480156101f557600080fd5b506101fe610479565b6040805173ffffffffffffffffffffffffffffffffffffffff9092168252519081900360200190f35b34801561023357600080fd5b5061011b610495565b34801561024857600080fd5b5061011b6104a2565b34801561025d57600080fd5b506101446104ab565b34801561027257600080fd5b506101446104b1565b34801561028757600080fd5b506101fe610568565b34801561029c57600080fd5b5061010473ffffffffffffffffffffffffffffffffffffffff60043516610584565b61010473ffffffffffffffffffffffffffffffffffffffff600435166102f4565b3480156102eb57600080fd5b506101fe610638565b3460006103018383610654565b61030a82610688565b600354909150610320908363ffffffff6106a516565b60035561032d83826106c2565b6040805183815260208101839052815173ffffffffffffffffffffffffffffffffffffffff86169233927f6faf93231a456e552dbc9961f58d9713ee4f2e69d15f1975b050ef0911053a7b929081900390910190a361038c8383610684565b6103946106cc565b61039e8383610684565b505050565b600654421190565b60025490565b60075490565b60095490565b60035490565b600060055442101580156103d957506006544211155b905090565b60065490565b60085460ff16156103f457600080fd5b6103fc6103a3565b151561040757600080fd5b61040f61073f565b6040517f9270cc390c096600a1c17c44345a1ba689fafd99d97487b10cfccf86cf73183690600090a1600880547fffffffffffffffffffffffffffffffffffffffffffffffffffffffffffffff00166001179055565b60006007546104726103bd565b1015905090565b60015473ffffffffffffffffffffffffffffffffffffffff1690565b60006009546104726103bd565b60085460ff1690565b60055490565b60006104bb610638565b60048054604080517fdd62ed3e00000000000000000000000000000000000000000000000000000000815273ffffffffffffffffffffffffffffffffffffffff928316938101939093523060248401525192169163dd62ed3e916044808201926020929091908290030181600087803b15801561053757600080fd5b505af115801561054b573d6000803e3d6000fd5b505050506040513d602081101561056157600080fd5b5051905090565b60045473ffffffffffffffffffffffffffffffffffffffff1690565b61058c6104a2565b151561059757600080fd5b61059f610495565b156105a957600080fd5b600a54604080517f51cff8d900000000000000000000000000000000000000000000000000000000815273ffffffffffffffffffffffffffffffffffffffff8481166004830152915191909216916351cff8d991602480830192600092919082900301818387803b15801561061d57600080fd5b505af1158015610631573d6000803e3d6000fd5b5050505050565b60005473ffffffffffffffffffffffffffffffffffffffff1690565b61065e8282610932565b6007546106798261066d6103bd565b9063ffffffff6106a516565b111561068457600080fd5b5050565b600061069f6002548361094f90919063ffffffff16565b92915050565b6000828201838110156106b757600080fd5b8091505b5092915050565b610684828261097d565b600a54604080517ff340fa01000000000000000000000000000000000000000000000000000000008152336004820152905173ffffffffffffffffffffffffffffffffffffffff9092169163f340fa01913491602480830192600092919082900301818588803b15801561061d57600080fd5b610747610495565b1561088d57600a60009054906101000a900473ffffffffffffffffffffffffffffffffffffffff1673ffffffffffffffffffffffffffffffffffffffff166343d726d66040518163ffffffff167c0100000000000000000000000000000000000000000000000000000000028152600401600060405180830381600087803b1580156107d257600080fd5b505af11580156107e6573d6000803e3d6000fd5b50505050600a60009054906101000a900473ffffffffffffffffffffffffffffffffffffffff1673ffffffffffffffffffffffffffffffffffffffff16639af6549a6040518163ffffffff167c0100000000000000000000000000000000000000000000000000000000028152600401600060405180830381600087803b15801561087057600080fd5b505af1158015610884573d6000803e3d6000fd5b5050505061092c565b600a60009054906101000a900473ffffffffffffffffffffffffffffffffffffffff1673ffffffffffffffffffffffffffffffffffffffff16638c52dc416040518163ffffffff167c0100000000000000000000000000000000000000000000000000000000028152600401600060405180830381600087803b15801561091357600080fd5b505af1158015610927573d6000803e3d6000fd5b505050505b6109305b565b61093a6103c3565b151561094557600080fd5b61068482826109c8565b60008083151561096257600091506106bb565b5082820282848281151561097257fe5b04146106b757600080fd5b6004546106849073ffffffffffffffffffffffffffffffffffffffff1683836109a4610638565b73ffffffffffffffffffffffffffffffffffffffff1692919063ffffffff6109f616565b73ffffffffffffffffffffffffffffffffffffffff821615156109ea57600080fd5b80151561068457600080fd5b604080517f23b872dd00000000000000000000000000000000000000000000000000000000815273ffffffffffffffffffffffffffffffffffffffff85811660048301528481166024830152604482018490529151918616916323b872dd916064808201926020929091908290030181600087803b158015610a7757600080fd5b505af1158015610a8b573d6000803e3d6000fd5b505050506040513d6020811015610aa157600080fd5b50511515610aae57600080fd5b505050505600a165627a7a72305820b9299140b4201bd359f85f64db3a9cbc3ab87339be64d7b6ceb867dcb05633f70029608060405234801561001057600080fd5b506040516020806107b8833981016040525160008054600160a060020a03191633179055600160a060020a038116151561004957600080fd5b6002805460ff19600160a060020a03939093166101000261010060a860020a031990911617919091169055610735806100836000396000f3006080604052600436106100ae5763ffffffff7c01000000000000000000000000000000000000000000000000000000006000350416632348238c81146100b357806338af3eed146100e357806343d726d61461012157806351cff8d914610136578063685ca194146101645780638c52dc41146101a65780639af6549a146101bb578063c19d93fb146101d0578063c6dbdf6114610209578063e3a9db1a1461021e578063f340fa011461025e575b600080fd5b3480156100bf57600080fd5b506100e173ffffffffffffffffffffffffffffffffffffffff6004351661027f565b005b3480156100ef57600080fd5b506100f861030c565b6040805173ffffffffffffffffffffffffffffffffffffffff9092168252519081900360200190f35b34801561012d57600080fd5b506100e161032d565b34801561014257600080fd5b506100e173ffffffffffffffffffffffffffffffffffffffff600435166103a5565b34801561017057600080fd5b5061019273ffffffffffffffffffffffffffffffffffffffff600435166103c5565b604080519115158252519081900360200190f35b3480156101b257600080fd5b506100e16103e1565b3480156101c757600080fd5b506100e161045a565b3480156101dc57600080fd5b506101e56104c3565b604051808260028111156101f557fe5b60ff16815260200191505060405180910390f35b34801561021557600080fd5b506100f86104cc565b34801561022a57600080fd5b5061024c73ffffffffffffffffffffffffffffffffffffffff600435166104e8565b60408051918252519081900360200190f35b6100e173ffffffffffffffffffffffffffffffffffffffff60043516610510565b60005473ffffffffffffffffffffffffffffffffffffffff1633146102a357600080fd5b73ffffffffffffffffffffffffffffffffffffffff811615156102c557600080fd5b600080547fffffffffffffffffffffffff00000000000000000000000000000000000000001673ffffffffffffffffffffffffffffffffffffffff92909216919091179055565b600254610100900473ffffffffffffffffffffffffffffffffffffffff1690565b60005473ffffffffffffffffffffffffffffffffffffffff16331461035157600080fd5b60006002805460ff169081111561036457fe5b1461036e57600080fd5b6002805460ff1916811790556040517f1cdde67b72a90f19919ac732a437ac2f7a10fc128d28c2a6e525d89ce5cd9d3a90600090a1565b6103ae816103c5565b15156103b957600080fd5b6103c281610536565b50565b600060016002805460ff16908111156103da57fe5b1492915050565b60005473ffffffffffffffffffffffffffffffffffffffff16331461040557600080fd5b60006002805460ff169081111561041857fe5b1461042257600080fd5b6002805460ff191660011790556040517f599d8e5a83cffb867d051598c4d70e805d59802d8081c1c7d6dffc5b6aca2b8990600090a1565b6002805460ff168181111561046b57fe5b1461047557600080fd5b60025460405173ffffffffffffffffffffffffffffffffffffffff6101009092049190911690303180156108fc02916000818181858888f193505050501580156103c2573d6000803e3d6000fd5b60025460ff1690565b60005473ffffffffffffffffffffffffffffffffffffffff1690565b73ffffffffffffffffffffffffffffffffffffffff1660009081526001602052604090205490565b60006002805460ff169081111561052357fe5b1461052d57600080fd5b6103c28161062f565b6000805473ffffffffffffffffffffffffffffffffffffffff16331461055b57600080fd5b5073ffffffffffffffffffffffffffffffffffffffff8116600090815260016020526040902054303181111561058d57fe5b73ffffffffffffffffffffffffffffffffffffffff82166000818152600160205260408082208290555183156108fc0291849190818181858888f193505050501580156105de573d6000803e3d6000fd5b5060408051828152905173ffffffffffffffffffffffffffffffffffffffff8416917f7084f5476618d8e60b11ef0d7d3f06914655adb8793e28ff7f018d4c76d505d5919081900360200190a25050565b6000805473ffffffffffffffffffffffffffffffffffffffff16331461065457600080fd5b5073ffffffffffffffffffffffffffffffffffffffff8116600090815260016020526040902054349061068d908263ffffffff6106f016565b73ffffffffffffffffffffffffffffffffffffffff8316600081815260016020908152604091829020939093558051848152905191927f2da466a7b24304f47e87fa2e1e5a81b9831ce54fec19055ce277ca2f39ba42c492918290030190a25050565b60008282018381101561070257600080fd5b93925050505600a165627a7a7230582098f13855a4569001a3e6ace260832298feee26f193e3975fb8666bf37c665e720029",
  "source": "pragma solidity ^0.4.18;\n\nimport 'openzeppelin-solidity/contracts/crowdsale/Crowdsale.sol';\nimport 'openzeppelin-solidity/contracts/crowdsale/validation/CappedCrowdsale.sol';\nimport 'openzeppelin-solidity/contracts/crowdsale/validation/TimedCrowdsale.sol';\nimport 'openzeppelin-solidity/contracts/crowdsale/distribution/RefundableCrowdsale.sol';\nimport 'openzeppelin-solidity/contracts/crowdsale/emission/AllowanceCrowdsale.sol';\nimport './TrustFeedToken.sol';\n\ncontract TrustFeedCrowdsale is AllowanceCrowdsale, TimedCrowdsale, CappedCrowdsale, RefundableCrowdsale {\n\tconstructor(\n    // Start\n    uint256 _openingTime,\n    // End\n    uint256 _closingTime,\n    // Price\n    uint256 _rate,\n    // Owner address (soon to be multi-sig)\n    address _wallet,\n    // The hard cap\n    uint256 _cap,\n    // The token\n    TrustFeedToken _token,\n    // The soft cap\n    uint256 _goal,\n    address _tokenWallet\n  )\n    public\n    AllowanceCrowdsale(_tokenWallet)\n    Crowdsale(_rate, _wallet, _token)\n    CappedCrowdsale(_cap)\n    RefundableCrowdsale(_goal)\n    TimedCrowdsale(_openingTime, _closingTime)\n  {\n    require(_goal <= _cap);\n  }\n}\n",
  "sourcePath": "/home/wetterj/tmp-api/truffle/contracts/TrustFeedCrowdsale.sol",
  "compiler": {
    "name": "solc",
    "version": "0.4.24+commit.e67f0147.Emscripten.clang"
  },
  "schemaVersion": "2.0.1",
  "updatedAt": "2018-10-11T07:52:10.586Z"
}