{
  "contractName": "TrustFeedMintableToken",
  "abi": [
    {
      "constant": true,
      "inputs": [],
      "name": "mintingFinished",
      "outputs": [
        {
          "name": "",
          "type": "bool"
        }
      ],
      "payable": false,
      "stateMutability": "view",
      "type": "function"
    },
    {
      "constant": true,
      "inputs": [],
      "name": "name",
      "outputs": [
        {
          "name": "",
          "type": "string"
        }
      ],
      "payable": false,
      "stateMutability": "view",
      "type": "function"
    },
    {
      "constant": false,
      "inputs": [
        {
          "name": "spender",
          "type": "address"
        },
        {
          "name": "value",
          "type": "uint256"
        }
      ],
      "name": "approve",
      "outputs": [
        {
          "name": "",
          "type": "bool"
        }
      ],
      "payable": false,
      "stateMutability": "nonpayable",
      "type": "function"
    },
    {
      "constant": true,
      "inputs": [],
      "name": "totalSupply",
      "outputs": [
        {
          "name": "",
          "type": "uint256"
        }
      ],
      "payable": false,
      "stateMutability": "view",
      "type": "function"
    },
    {
      "constant": false,
      "inputs": [
        {
          "name": "from",
          "type": "address"
        },
        {
          "name": "to",
          "type": "address"
        },
        {
          "name": "value",
          "type": "uint256"
        }
      ],
      "name": "transferFrom",
      "outputs": [
        {
          "name": "",
          "type": "bool"
        }
      ],
      "payable": false,
      "stateMutability": "nonpayable",
      "type": "function"
    },
    {
      "constant": true,
      "inputs": [],
      "name": "decimals",
      "outputs": [
        {
          "name": "",
          "type": "uint8"
        }
      ],
      "payable": false,
      "stateMutability": "view",
      "type": "function"
    },
    {
      "constant": false,
      "inputs": [
        {
          "name": "spender",
          "type": "address"
        },
        {
          "name": "addedValue",
          "type": "uint256"
        }
      ],
      "name": "increaseAllowance",
      "outputs": [
        {
          "name": "",
          "type": "bool"
        }
      ],
      "payable": false,
      "stateMutability": "nonpayable",
      "type": "function"
    },
    {
      "constant": false,
      "inputs": [
        {
          "name": "to",
          "type": "address"
        },
        {
          "name": "amount",
          "type": "uint256"
        }
      ],
      "name": "mint",
      "outputs": [
        {
          "name": "",
          "type": "bool"
        }
      ],
      "payable": false,
      "stateMutability": "nonpayable",
      "type": "function"
    },
    {
      "constant": true,
      "inputs": [
        {
          "name": "owner",
          "type": "address"
        }
      ],
      "name": "balanceOf",
      "outputs": [
        {
          "name": "",
          "type": "uint256"
        }
      ],
      "payable": false,
      "stateMutability": "view",
      "type": "function"
    },
    {
      "constant": false,
      "inputs": [],
      "name": "finishMinting",
      "outputs": [
        {
          "name": "",
          "type": "bool"
        }
      ],
      "payable": false,
      "stateMutability": "nonpayable",
      "type": "function"
    },
    {
      "constant": true,
      "inputs": [],
      "name": "symbol",
      "outputs": [
        {
          "name": "",
          "type": "string"
        }
      ],
      "payable": false,
      "stateMutability": "view",
      "type": "function"
    },
    {
      "constant": false,
      "inputs": [
        {
          "name": "account",
          "type": "address"
        }
      ],
      "name": "addMinter",
      "outputs": [],
      "payable": false,
      "stateMutability": "nonpayable",
      "type": "function"
    },
    {
      "constant": false,
      "inputs": [],
      "name": "renounceMinter",
      "outputs": [],
      "payable": false,
      "stateMutability": "nonpayable",
      "type": "function"
    },
    {
      "constant": false,
      "inputs": [
        {
          "name": "spender",
          "type": "address"
        },
        {
          "name": "subtractedValue",
          "type": "uint256"
        }
      ],
      "name": "decreaseAllowance",
      "outputs": [
        {
          "name": "",
          "type": "bool"
        }
      ],
      "payable": false,
      "stateMutability": "nonpayable",
      "type": "function"
    },
    {
      "constant": false,
      "inputs": [
        {
          "name": "to",
          "type": "address"
        },
        {
          "name": "value",
          "type": "uint256"
        }
      ],
      "name": "transfer",
      "outputs": [
        {
          "name": "",
          "type": "bool"
        }
      ],
      "payable": false,
      "stateMutability": "nonpayable",
      "type": "function"
    },
    {
      "constant": true,
      "inputs": [
        {
          "name": "account",
          "type": "address"
        }
      ],
      "name": "isMinter",
      "outputs": [
        {
          "name": "",
          "type": "bool"
        }
      ],
      "payable": false,
      "stateMutability": "view",
      "type": "function"
    },
    {
      "constant": true,
      "inputs": [
        {
          "name": "owner",
          "type": "address"
        },
        {
          "name": "spender",
          "type": "address"
        }
      ],
      "name": "allowance",
      "outputs": [
        {
          "name": "",
          "type": "uint256"
        }
      ],
      "payable": false,
      "stateMutability": "view",
      "type": "function"
    },
    {
      "inputs": [
        {
          "name": "_name",
          "type": "string"
        },
        {
          "name": "_symbol",
          "type": "string"
        },
        {
          "name": "_decimals",
          "type": "uint8"
        }
      ],
      "payable": false,
      "stateMutability": "nonpayable",
      "type": "constructor"
    },
    {
      "anonymous": false,
      "inputs": [],
      "name": "MintingFinished",
      "type": "event"
    },
    {
      "anonymous": false,
      "inputs": [
        {
          "indexed": true,
          "name": "account",
          "type": "address"
        }
      ],
      "name": "MinterAdded",
      "type": "event"
    },
    {
      "anonymous": false,
      "inputs": [
        {
          "indexed": true,
          "name": "account",
          "type": "address"
        }
      ],
      "name": "MinterRemoved",
      "type": "event"
    },
    {
      "anonymous": false,
      "inputs": [
        {
          "indexed": true,
          "name": "from",
          "type": "address"
        },
        {
          "indexed": true,
          "name": "to",
          "type": "address"
        },
        {
          "indexed": false,
          "name": "value",
          "type": "uint256"
        }
      ],
      "name": "Transfer",
      "type": "event"
    },
    {
      "anonymous": false,
      "inputs": [
        {
          "indexed": true,
          "name": "owner",
          "type": "address"
        },
        {
          "indexed": true,
          "name": "spender",
          "type": "address"
        },
        {
          "indexed": false,
          "name": "value",
          "type": "uint256"
        }
      ],
      "name": "Approval",
      "type": "event"
    }
  ],
  "bytecode": "0x60806040526004805460ff191690553480156200001b57600080fd5b5060405162000f1e38038062000f1e83398101604090815281516020830151918301519083019291909101906200006260033364010000000062000c61620000ab82021704565b825162000077906005906020860190620000e6565b5081516200008d906006906020850190620000e6565b506007805460ff191660ff92909216919091179055506200018b9050565b600160a060020a0381161515620000c157600080fd5b600160a060020a0316600090815260209190915260409020805460ff19166001179055565b828054600181600116156101000203166002900490600052602060002090601f016020900481019282601f106200012957805160ff191683800117855562000159565b8280016001018555821562000159579182015b82811115620001595782518255916020019190600101906200013c565b50620001679291506200016b565b5090565b6200018891905b8082111562000167576000815560010162000172565b90565b610d83806200019b6000396000f3006080604052600436106100f05763ffffffff7c010000000000000000000000000000000000000000000000000000000060003504166305d2035b81146100f557806306fdde031461011e578063095ea7b3146101a857806318160ddd146101d957806323b872dd14610200578063313ce56714610237578063395093511461026257806340c10f191461029357806370a08231146102c45780637d64bcb4146102f257806395d89b4114610307578063983b2d561461031c578063986502751461034c578063a457c2d714610361578063a9059cbb14610392578063aa271e1a146103c3578063dd62ed3e146103f1575b600080fd5b34801561010157600080fd5b5061010a610425565b604080519115158252519081900360200190f35b34801561012a57600080fd5b5061013361042e565b6040805160208082528351818301528351919283929083019185019080838360005b8381101561016d578181015183820152602001610155565b50505050905090810190601f16801561019a5780820380516001836020036101000a031916815260200191505b509250505060405180910390f35b3480156101b457600080fd5b5061010a73ffffffffffffffffffffffffffffffffffffffff600435166024356104bc565b3480156101e557600080fd5b506101ee610554565b60408051918252519081900360200190f35b34801561020c57600080fd5b5061010a73ffffffffffffffffffffffffffffffffffffffff6004358116906024351660443561055a565b34801561024357600080fd5b5061024c61072a565b6040805160ff9092168252519081900360200190f35b34801561026e57600080fd5b5061010a73ffffffffffffffffffffffffffffffffffffffff60043516602435610733565b34801561029f57600080fd5b5061010a73ffffffffffffffffffffffffffffffffffffffff6004351660243561080a565b3480156102d057600080fd5b506101ee73ffffffffffffffffffffffffffffffffffffffff60043516610843565b3480156102fe57600080fd5b5061010a61086b565b34801561031357600080fd5b506101336108cd565b34801561032857600080fd5b5061034a73ffffffffffffffffffffffffffffffffffffffff60043516610928565b005b34801561035857600080fd5b5061034a610991565b34801561036d57600080fd5b5061010a73ffffffffffffffffffffffffffffffffffffffff600435166024356109a4565b34801561039e57600080fd5b5061010a73ffffffffffffffffffffffffffffffffffffffff60043516602435610a09565b3480156103cf57600080fd5b5061010a73ffffffffffffffffffffffffffffffffffffffff60043516610b0f565b3480156103fd57600080fd5b506101ee73ffffffffffffffffffffffffffffffffffffffff60043581169060243516610b28565b60045460ff1690565b6005805460408051602060026001851615610100026000190190941693909304601f810184900484028201840190925281815292918301828280156104b45780601f10610489576101008083540402835291602001916104b4565b820191906000526020600020905b81548152906001019060200180831161049757829003601f168201915b505050505081565b600073ffffffffffffffffffffffffffffffffffffffff831615156104e057600080fd5b33600081815260016020908152604080832073ffffffffffffffffffffffffffffffffffffffff881680855290835292819020869055805186815290519293927f8c5be1e5ebec7d5bd14f71427d1e84f3dd0314c0f7b2291e5b200ac8c7c3b925929181900390910190a350600192915050565b60025490565b73ffffffffffffffffffffffffffffffffffffffff831660009081526020819052604081205482111561058c57600080fd5b73ffffffffffffffffffffffffffffffffffffffff841660009081526001602090815260408083203384529091529020548211156105c957600080fd5b73ffffffffffffffffffffffffffffffffffffffff831615156105eb57600080fd5b73ffffffffffffffffffffffffffffffffffffffff8416600090815260208190526040902054610621908363ffffffff610b6016565b73ffffffffffffffffffffffffffffffffffffffff8086166000908152602081905260408082209390935590851681522054610663908363ffffffff610b7716565b73ffffffffffffffffffffffffffffffffffffffff8085166000908152602081815260408083209490945591871681526001825282812033825290915220546106b2908363ffffffff610b6016565b73ffffffffffffffffffffffffffffffffffffffff808616600081815260016020908152604080832033845282529182902094909455805186815290519287169391927fddf252ad1be2c89b69c2b068fc378daa952ba7f163c4a11628f55a4df523b3ef929181900390910190a35060019392505050565b60075460ff1681565b600073ffffffffffffffffffffffffffffffffffffffff8316151561075757600080fd5b33600090815260016020908152604080832073ffffffffffffffffffffffffffffffffffffffff87168452909152902054610798908363ffffffff610b7716565b33600081815260016020908152604080832073ffffffffffffffffffffffffffffffffffffffff89168085529083529281902085905580519485525191937f8c5be1e5ebec7d5bd14f71427d1e84f3dd0314c0f7b2291e5b200ac8c7c3b925929081900390910190a350600192915050565b600061081533610b0f565b151561082057600080fd5b60045460ff161561083057600080fd5b61083a8383610b90565b50600192915050565b73ffffffffffffffffffffffffffffffffffffffff1660009081526020819052604090205490565b600061087633610b0f565b151561088157600080fd5b60045460ff161561089157600080fd5b6004805460ff191660011790556040517fb828d9b5c78095deeeeff2eca2e5d4fe046ce3feb4c99702624a3fd384ad2dbc90600090a150600190565b6006805460408051602060026001851615610100026000190190941693909304601f810184900484028201840190925281815292918301828280156104b45780601f10610489576101008083540402835291602001916104b4565b61093133610b0f565b151561093c57600080fd5b61094d60038263ffffffff610c6116565b60405173ffffffffffffffffffffffffffffffffffffffff8216907f6ae172837ea30b801fbfcdd4108aa1d5bf8ff775444fd70256b44e6bf3dfc3f690600090a250565b6109a260033363ffffffff610cb516565b565b600073ffffffffffffffffffffffffffffffffffffffff831615156109c857600080fd5b33600090815260016020908152604080832073ffffffffffffffffffffffffffffffffffffffff87168452909152902054610798908363ffffffff610b6016565b33600090815260208190526040812054821115610a2557600080fd5b73ffffffffffffffffffffffffffffffffffffffff83161515610a4757600080fd5b33600090815260208190526040902054610a67908363ffffffff610b6016565b336000908152602081905260408082209290925573ffffffffffffffffffffffffffffffffffffffff851681522054610aa6908363ffffffff610b7716565b73ffffffffffffffffffffffffffffffffffffffff8416600081815260208181526040918290209390935580518581529051919233927fddf252ad1be2c89b69c2b068fc378daa952ba7f163c4a11628f55a4df523b3ef9281900390910190a350600192915050565b6000610b2260038363ffffffff610d0616565b92915050565b73ffffffffffffffffffffffffffffffffffffffff918216600090815260016020908152604080832093909416825291909152205490565b60008083831115610b7057600080fd5b5050900390565b600082820183811015610b8957600080fd5b9392505050565b73ffffffffffffffffffffffffffffffffffffffff82161515610bb257600080fd5b600254610bc5908263ffffffff610b7716565b60025573ffffffffffffffffffffffffffffffffffffffff8216600090815260208190526040902054610bfe908263ffffffff610b7716565b73ffffffffffffffffffffffffffffffffffffffff83166000818152602081815260408083209490945583518581529351929391927fddf252ad1be2c89b69c2b068fc378daa952ba7f163c4a11628f55a4df523b3ef9281900390910190a35050565b73ffffffffffffffffffffffffffffffffffffffff81161515610c8357600080fd5b73ffffffffffffffffffffffffffffffffffffffff16600090815260209190915260409020805460ff19166001179055565b73ffffffffffffffffffffffffffffffffffffffff81161515610cd757600080fd5b73ffffffffffffffffffffffffffffffffffffffff16600090815260209190915260409020805460ff19169055565b600073ffffffffffffffffffffffffffffffffffffffff82161515610d2a57600080fd5b5073ffffffffffffffffffffffffffffffffffffffff166000908152602091909152604090205460ff16905600a165627a7a72305820be0908fb8c91c60fc2dfeaa9fc3a64f293a17b1f537c9f90806a9072e8b333c70029",
  "source": "pragma solidity ^0.4.18;\n\nimport 'openzeppelin-solidity/contracts/token/ERC20/ERC20Mintable.sol';\n\ncontract TrustFeedMintableToken is ERC20Mintable {\n\tstring public name;\n\tstring public symbol;\n\tuint8 public decimals;\n\n\tconstructor(string _name, string _symbol, uint8 _decimals) public {\n\t\tname = _name;\n\t\tsymbol = _symbol;\n\t\tdecimals = _decimals;\n\t}\n}\n",
  "compiler": {
    "name": "solc",
    "version": "0.4.24+commit.e67f0147.Emscripten.clang"
  },
  "schemaVersion": "2.0.1",
  "updatedAt": "2018-10-11T07:52:10.587Z"
}