{
  "contractName": "TrustFeedMintedCrowdsale",
  "abi": [
    {
      "constant": true,
      "inputs": [],
      "name": "hasClosed",
      "outputs": [
        {
          "name": "",
          "type": "bool"
        }
      ],
      "payable": false,
      "stateMutability": "view",
      "type": "function"
    },
    {
      "constant": true,
      "inputs": [],
      "name": "rate",
      "outputs": [
        {
          "name": "",
          "type": "uint256"
        }
      ],
      "payable": false,
      "stateMutability": "view",
      "type": "function"
    },
    {
      "constant": true,
      "inputs": [],
      "name": "cap",
      "outputs": [
        {
          "name": "",
          "type": "uint256"
        }
      ],
      "payable": false,
      "stateMutability": "view",
      "type": "function"
    },
    {
      "constant": true,
      "inputs": [],
      "name": "goal",
      "outputs": [
        {
          "name": "",
          "type": "uint256"
        }
      ],
      "payable": false,
      "stateMutability": "view",
      "type": "function"
    },
    {
      "constant": true,
      "inputs": [],
      "name": "weiRaised",
      "outputs": [
        {
          "name": "",
          "type": "uint256"
        }
      ],
      "payable": false,
      "stateMutability": "view",
      "type": "function"
    },
    {
      "constant": true,
      "inputs": [],
      "name": "isOpen",
      "outputs": [
        {
          "name": "",
          "type": "bool"
        }
      ],
      "payable": false,
      "stateMutability": "view",
      "type": "function"
    },
    {
      "constant": true,
      "inputs": [],
      "name": "closingTime",
      "outputs": [
        {
          "name": "",
          "type": "uint256"
        }
      ],
      "payable": false,
      "stateMutability": "view",
      "type": "function"
    },
    {
      "constant": false,
      "inputs": [],
      "name": "finalize",
      "outputs": [],
      "payable": false,
      "stateMutability": "nonpayable",
      "type": "function"
    },
    {
      "constant": true,
      "inputs": [],
      "name": "capReached",
      "outputs": [
        {
          "name": "",
          "type": "bool"
        }
      ],
      "payable": false,
      "stateMutability": "view",
      "type": "function"
    },
    {
      "constant": true,
      "inputs": [],
      "name": "wallet",
      "outputs": [
        {
          "name": "",
          "type": "address"
        }
      ],
      "payable": false,
      "stateMutability": "view",
      "type": "function"
    },
    {
      "constant": true,
      "inputs": [],
      "name": "goalReached",
      "outputs": [
        {
          "name": "",
          "type": "bool"
        }
      ],
      "payable": false,
      "stateMutability": "view",
      "type": "function"
    },
    {
      "constant": true,
      "inputs": [],
      "name": "finalized",
      "outputs": [
        {
          "name": "",
          "type": "bool"
        }
      ],
      "payable": false,
      "stateMutability": "view",
      "type": "function"
    },
    {
      "constant": true,
      "inputs": [],
      "name": "openingTime",
      "outputs": [
        {
          "name": "",
          "type": "uint256"
        }
      ],
      "payable": false,
      "stateMutability": "view",
      "type": "function"
    },
    {
      "constant": false,
      "inputs": [
        {
          "name": "beneficiary",
          "type": "address"
        }
      ],
      "name": "claimRefund",
      "outputs": [],
      "payable": false,
      "stateMutability": "nonpayable",
      "type": "function"
    },
    {
      "constant": false,
      "inputs": [
        {
          "name": "beneficiary",
          "type": "address"
        }
      ],
      "name": "buyTokens",
      "outputs": [],
      "payable": true,
      "stateMutability": "payable",
      "type": "function"
    },
    {
      "constant": true,
      "inputs": [],
      "name": "token",
      "outputs": [
        {
          "name": "",
          "type": "address"
        }
      ],
      "payable": false,
      "stateMutability": "view",
      "type": "function"
    },
    {
      "inputs": [
        {
          "name": "_openingTime",
          "type": "uint256"
        },
        {
          "name": "_closingTime",
          "type": "uint256"
        },
        {
          "name": "_rate",
          "type": "uint256"
        },
        {
          "name": "_wallet",
          "type": "address"
        },
        {
          "name": "_cap",
          "type": "uint256"
        },
        {
          "name": "_token",
          "type": "address"
        },
        {
          "name": "_goal",
          "type": "uint256"
        }
      ],
      "payable": false,
      "stateMutability": "nonpayable",
      "type": "constructor"
    },
    {
      "payable": true,
      "stateMutability": "payable",
      "type": "fallback"
    },
    {
      "anonymous": false,
      "inputs": [],
      "name": "CrowdsaleFinalized",
      "type": "event"
    },
    {
      "anonymous": false,
      "inputs": [
        {
          "indexed": true,
          "name": "purchaser",
          "type": "address"
        },
        {
          "indexed": true,
          "name": "beneficiary",
          "type": "address"
        },
        {
          "indexed": false,
          "name": "value",
          "type": "uint256"
        },
        {
          "indexed": false,
          "name": "amount",
          "type": "uint256"
        }
      ],
      "name": "TokensPurchased",
      "type": "event"
    }
  ],
  "bytecode": "0x60806040526007805460ff1916905534801561001a57600080fd5b5060405160e08061131383398101604090815281516020830151918301516060840151608085015160a086015160c0909601519395929391929091808388888888876000831161006957600080fd5b600160a060020a038216151561007e57600080fd5b600160a060020a038116151561009357600080fd5b60029290925560018054600160a060020a03928316600160a060020a03199182161790915560008054929093169116179055428210156100d257600080fd5b818110156100df57600080fd5b600491909155600555600081116100f557600080fd5b6006556000811161010557600080fd5b610116640100000000610188810204565b61011e610197565b600160a060020a03909116815260405190819003602001906000f08015801561014b573d6000803e3d6000fd5b5060098054600160a060020a031916600160a060020a03929092169190911790556008558281111561017c57600080fd5b505050505050506101a7565b600154600160a060020a031690565b6040516107b880610b5b83390190565b6109a5806101b66000396000f3006080604052600436106100e55763ffffffff7c01000000000000000000000000000000000000000000000000000000006000350416631515bc2b81146100f05780632c4e722e14610119578063355274ea1461014057806340193883146101555780634042b66f1461016a57806347535d7b1461017f5780634b6753bc146101945780634bb278f3146101a95780634f935945146101be578063521eb273146101d35780637d3d652214610211578063b3f05b9714610226578063b7a8807c1461023b578063bffa55d514610250578063ec8ac4d81461027e578063fc0c546a1461029f575b6100ee336102b4565b005b3480156100fc57600080fd5b50610105610363565b604080519115158252519081900360200190f35b34801561012557600080fd5b5061012e61036b565b60408051918252519081900360200190f35b34801561014c57600080fd5b5061012e610371565b34801561016157600080fd5b5061012e610377565b34801561017657600080fd5b5061012e61037d565b34801561018b57600080fd5b50610105610383565b3480156101a057600080fd5b5061012e61039e565b3480156101b557600080fd5b506100ee6103a4565b3480156101ca57600080fd5b50610105610425565b3480156101df57600080fd5b506101e8610439565b6040805173ffffffffffffffffffffffffffffffffffffffff9092168252519081900360200190f35b34801561021d57600080fd5b50610105610455565b34801561023257600080fd5b50610105610462565b34801561024757600080fd5b5061012e61046b565b34801561025c57600080fd5b506100ee73ffffffffffffffffffffffffffffffffffffffff60043516610471565b6100ee73ffffffffffffffffffffffffffffffffffffffff600435166102b4565b3480156102ab57600080fd5b506101e8610525565b3460006102c18383610541565b6102ca82610575565b6003549091506102e0908363ffffffff61059216565b6003556102ed83826105af565b6040805183815260208101839052815173ffffffffffffffffffffffffffffffffffffffff86169233927f6faf93231a456e552dbc9961f58d9713ee4f2e69d15f1975b050ef0911053a7b929081900390910190a361034c8383610571565b6103546105b9565b61035e8383610571565b505050565b600554421190565b60025490565b60065490565b60085490565b60035490565b6000600454421015801561039957506005544211155b905090565b60055490565b60075460ff16156103b457600080fd5b6103bc610363565b15156103c757600080fd5b6103cf61062c565b6040517f9270cc390c096600a1c17c44345a1ba689fafd99d97487b10cfccf86cf73183690600090a1600780547fffffffffffffffffffffffffffffffffffffffffffffffffffffffffffffff00166001179055565b600060065461043261037d565b1015905090565b60015473ffffffffffffffffffffffffffffffffffffffff1690565b600060085461043261037d565b60075460ff1690565b60045490565b610479610462565b151561048457600080fd5b61048c610455565b1561049657600080fd5b600954604080517f51cff8d900000000000000000000000000000000000000000000000000000000815273ffffffffffffffffffffffffffffffffffffffff8481166004830152915191909216916351cff8d991602480830192600092919082900301818387803b15801561050a57600080fd5b505af115801561051e573d6000803e3d6000fd5b5050505050565b60005473ffffffffffffffffffffffffffffffffffffffff1690565b61054b828261081f565b6006546105668261055a61037d565b9063ffffffff61059216565b111561057157600080fd5b5050565b600061058c6002548361083c90919063ffffffff16565b92915050565b6000828201838110156105a457600080fd5b8091505b5092915050565b610571828261086a565b600954604080517ff340fa01000000000000000000000000000000000000000000000000000000008152336004820152905173ffffffffffffffffffffffffffffffffffffffff9092169163f340fa01913491602480830192600092919082900301818588803b15801561050a57600080fd5b610634610455565b1561077a57600960009054906101000a900473ffffffffffffffffffffffffffffffffffffffff1673ffffffffffffffffffffffffffffffffffffffff166343d726d66040518163ffffffff167c0100000000000000000000000000000000000000000000000000000000028152600401600060405180830381600087803b1580156106bf57600080fd5b505af11580156106d3573d6000803e3d6000fd5b50505050600960009054906101000a900473ffffffffffffffffffffffffffffffffffffffff1673ffffffffffffffffffffffffffffffffffffffff16639af6549a6040518163ffffffff167c0100000000000000000000000000000000000000000000000000000000028152600401600060405180830381600087803b15801561075d57600080fd5b505af1158015610771573d6000803e3d6000fd5b50505050610819565b600960009054906101000a900473ffffffffffffffffffffffffffffffffffffffff1673ffffffffffffffffffffffffffffffffffffffff16638c52dc416040518163ffffffff167c0100000000000000000000000000000000000000000000000000000000028152600401600060405180830381600087803b15801561080057600080fd5b505af1158015610814573d6000803e3d6000fd5b505050505b61081d5b565b610827610383565b151561083257600080fd5b610571828261094b565b60008083151561084f57600091506105a8565b5082820282848281151561085f57fe5b04146105a457600080fd5b610872610525565b73ffffffffffffffffffffffffffffffffffffffff166340c10f1983836040518363ffffffff167c0100000000000000000000000000000000000000000000000000000000028152600401808373ffffffffffffffffffffffffffffffffffffffff1673ffffffffffffffffffffffffffffffffffffffff16815260200182815260200192505050602060405180830381600087803b15801561091457600080fd5b505af1158015610928573d6000803e3d6000fd5b505050506040513d602081101561093e57600080fd5b5051151561057157600080fd5b73ffffffffffffffffffffffffffffffffffffffff8216151561096d57600080fd5b80151561057157600080fd00a165627a7a72305820625e809042943ec08d8890a143c4b9247806188a445be3ccd481f02a8816bdfa0029608060405234801561001057600080fd5b506040516020806107b8833981016040525160008054600160a060020a03191633179055600160a060020a038116151561004957600080fd5b6002805460ff19600160a060020a03939093166101000261010060a860020a031990911617919091169055610735806100836000396000f3006080604052600436106100ae5763ffffffff7c01000000000000000000000000000000000000000000000000000000006000350416632348238c81146100b357806338af3eed146100e357806343d726d61461012157806351cff8d914610136578063685ca194146101645780638c52dc41146101a65780639af6549a146101bb578063c19d93fb146101d0578063c6dbdf6114610209578063e3a9db1a1461021e578063f340fa011461025e575b600080fd5b3480156100bf57600080fd5b506100e173ffffffffffffffffffffffffffffffffffffffff6004351661027f565b005b3480156100ef57600080fd5b506100f861030c565b6040805173ffffffffffffffffffffffffffffffffffffffff9092168252519081900360200190f35b34801561012d57600080fd5b506100e161032d565b34801561014257600080fd5b506100e173ffffffffffffffffffffffffffffffffffffffff600435166103a5565b34801561017057600080fd5b5061019273ffffffffffffffffffffffffffffffffffffffff600435166103c5565b604080519115158252519081900360200190f35b3480156101b257600080fd5b506100e16103e1565b3480156101c757600080fd5b506100e161045a565b3480156101dc57600080fd5b506101e56104c3565b604051808260028111156101f557fe5b60ff16815260200191505060405180910390f35b34801561021557600080fd5b506100f86104cc565b34801561022a57600080fd5b5061024c73ffffffffffffffffffffffffffffffffffffffff600435166104e8565b60408051918252519081900360200190f35b6100e173ffffffffffffffffffffffffffffffffffffffff60043516610510565b60005473ffffffffffffffffffffffffffffffffffffffff1633146102a357600080fd5b73ffffffffffffffffffffffffffffffffffffffff811615156102c557600080fd5b600080547fffffffffffffffffffffffff00000000000000000000000000000000000000001673ffffffffffffffffffffffffffffffffffffffff92909216919091179055565b600254610100900473ffffffffffffffffffffffffffffffffffffffff1690565b60005473ffffffffffffffffffffffffffffffffffffffff16331461035157600080fd5b60006002805460ff169081111561036457fe5b1461036e57600080fd5b6002805460ff1916811790556040517f1cdde67b72a90f19919ac732a437ac2f7a10fc128d28c2a6e525d89ce5cd9d3a90600090a1565b6103ae816103c5565b15156103b957600080fd5b6103c281610536565b50565b600060016002805460ff16908111156103da57fe5b1492915050565b60005473ffffffffffffffffffffffffffffffffffffffff16331461040557600080fd5b60006002805460ff169081111561041857fe5b1461042257600080fd5b6002805460ff191660011790556040517f599d8e5a83cffb867d051598c4d70e805d59802d8081c1c7d6dffc5b6aca2b8990600090a1565b6002805460ff168181111561046b57fe5b1461047557600080fd5b60025460405173ffffffffffffffffffffffffffffffffffffffff6101009092049190911690303180156108fc02916000818181858888f193505050501580156103c2573d6000803e3d6000fd5b60025460ff1690565b60005473ffffffffffffffffffffffffffffffffffffffff1690565b73ffffffffffffffffffffffffffffffffffffffff1660009081526001602052604090205490565b60006002805460ff169081111561052357fe5b1461052d57600080fd5b6103c28161062f565b6000805473ffffffffffffffffffffffffffffffffffffffff16331461055b57600080fd5b5073ffffffffffffffffffffffffffffffffffffffff8116600090815260016020526040902054303181111561058d57fe5b73ffffffffffffffffffffffffffffffffffffffff82166000818152600160205260408082208290555183156108fc0291849190818181858888f193505050501580156105de573d6000803e3d6000fd5b5060408051828152905173ffffffffffffffffffffffffffffffffffffffff8416917f7084f5476618d8e60b11ef0d7d3f06914655adb8793e28ff7f018d4c76d505d5919081900360200190a25050565b6000805473ffffffffffffffffffffffffffffffffffffffff16331461065457600080fd5b5073ffffffffffffffffffffffffffffffffffffffff8116600090815260016020526040902054349061068d908263ffffffff6106f016565b73ffffffffffffffffffffffffffffffffffffffff8316600081815260016020908152604091829020939093558051848152905191927f2da466a7b24304f47e87fa2e1e5a81b9831ce54fec19055ce277ca2f39ba42c492918290030190a25050565b60008282018381101561070257600080fd5b93925050505600a165627a7a7230582098f13855a4569001a3e6ace260832298feee26f193e3975fb8666bf37c665e720029",
  "source": "pragma solidity ^0.4.18;\n\nimport 'openzeppelin-solidity/contracts/crowdsale/Crowdsale.sol';\nimport 'openzeppelin-solidity/contracts/crowdsale/validation/CappedCrowdsale.sol';\nimport 'openzeppelin-solidity/contracts/crowdsale/validation/TimedCrowdsale.sol';\nimport 'openzeppelin-solidity/contracts/crowdsale/distribution/RefundableCrowdsale.sol';\nimport 'openzeppelin-solidity/contracts/crowdsale/emission/MintedCrowdsale.sol';\nimport './TrustFeedMintableToken.sol';\n\ncontract TrustFeedMintedCrowdsale is MintedCrowdsale, TimedCrowdsale, CappedCrowdsale, RefundableCrowdsale {\n\tconstructor(\n    // Start\n    uint256 _openingTime,\n    // End\n    uint256 _closingTime,\n    // Price\n    uint256 _rate,\n    // Owner address (soon to be multi-sig)\n    address _wallet,\n    // The hard cap\n    uint256 _cap,\n    // The token\n    TrustFeedMintableToken _token,\n    // The soft cap\n    uint256 _goal\n  )\n    public                                                                                            \n    Crowdsale(_rate, _wallet, _token)\n    CappedCrowdsale(_cap)\n    RefundableCrowdsale(_goal)\n    TimedCrowdsale(_openingTime, _closingTime)\n  {\n    require(_goal <= _cap);\n  }\n}\n",
  "sourcePath": "/home/wetterj/tmp-api/truffle/contracts/TrustFeedMintedCrowdsale.sol",
  "compiler": {
    "name": "solc",
    "version": "0.4.24+commit.e67f0147.Emscripten.clang"
  },
  "schemaVersion": "2.0.1",
  "updatedAt": "2018-10-11T07:10:33.207Z"
}