{
  "contractName": "TrustFeedCampaign",
  "abi": [
    {
      "constant": true,
      "inputs": [],
      "name": "wallet",
      "outputs": [
        {
          "name": "",
          "type": "address"
        }
      ],
      "payable": false,
      "stateMutability": "view",
      "type": "function"
    },
    {
      "constant": true,
      "inputs": [],
      "name": "crowdsale",
      "outputs": [
        {
          "name": "",
          "type": "address"
        }
      ],
      "payable": false,
      "stateMutability": "view",
      "type": "function"
    },
    {
      "constant": true,
      "inputs": [],
      "name": "token",
      "outputs": [
        {
          "name": "",
          "type": "address"
        }
      ],
      "payable": false,
      "stateMutability": "view",
      "type": "function"
    },
    {
      "inputs": [
        {
          "name": "_owners",
          "type": "address[]"
        },
        {
          "name": "_name",
          "type": "string"
        },
        {
          "name": "_symbol",
          "type": "string"
        },
        {
          "name": "_decimals",
          "type": "uint8"
        },
        {
          "name": "_initialSupply",
          "type": "uint256"
        },
        {
          "name": "_openingTime",
          "type": "uint256"
        },
        {
          "name": "_closingTime",
          "type": "uint256"
        },
        {
          "name": "_rate",
          "type": "uint256"
        },
        {
          "name": "_cap",
          "type": "uint256"
        },
        {
          "name": "_goal",
          "type": "uint256"
        },
        {
          "name": "_campaignId",
          "type": "string"
        }
      ],
      "payable": false,
      "stateMutability": "nonpayable",
      "type": "constructor"
    },
    {
      "anonymous": false,
      "inputs": [
        {
          "indexed": false,
          "name": "campaignAddress",
          "type": "address"
        },
        {
          "indexed": false,
          "name": "campaignId",
          "type": "string"
        }
      ],
      "name": "NewCampaign",
      "type": "event"
    }
  ],
  "bytecode": "0x608060405234801561001057600080fd5b50604051613e1a380380613e1a83398101604090815281516020830151918301516060840151608085015160a086015160c087015160e08801516101008901516101208a01516101408b0151988b019a998a0199978801989697959694959394929391929091018a6002610082610422565b60208082018390526040808352845190830152835182916060830191868201910280838360005b838110156100c15781810151838201526020016100a9565b505050509050019350505050604051809103906000f0801580156100e9573d6000803e3d6000fd5b5060008054600160a060020a031916600160a060020a03929092169190911790558989898930610117610432565b60ff8416604082015260608101839052600160a060020a038216608082015260a08082528651908201528551819060208083019160c08401918a019080838360005b83811015610171578181015183820152602001610159565b50505050905090810190601f16801561019e5780820380516001836020036101000a031916815260200191505b50838103825287518152875160209182019189019080838360005b838110156101d15781810151838201526020016101b9565b50505050905090810190601f1680156101fe5780820380516001836020036101000a031916815260200191505b50975050505050505050604051809103906000f080158015610224573d6000803e3d6000fd5b5060018054600160a060020a031916600160a060020a039283161790819055600054889288928892821691889116873061025c610442565b9788526020880196909652604080880195909552600160a060020a0393841660608801526080870192909252821660a086015260c08501529190911660e0830152519081900361010001906000f0801580156102bc573d6000803e3d6000fd5b5060028054600160a060020a031916600160a060020a039283161790819055600154604080517f095ea7b30000000000000000000000000000000000000000000000000000000081529284166004840152602483018b90525192169163095ea7b3916044808201926020929091908290030181600087803b15801561034057600080fd5b505af1158015610354573d6000803e3d6000fd5b505050506040513d602081101561036a57600080fd5b50506040805130808252602082810184815285519484019490945284517fb9fb0767eb7828b47fec6477452ea477847084b605dab5774154f8a1f4a5523c949293869390929091606084019185019080838360005b838110156103d75781810151838201526020016103bf565b50505050905090810190601f1680156104045780820380516001836020036101000a031916815260200191505b50935050505060405180910390a15050505050505050505050610452565b60405161185c806105a483390190565b604051610b9080611e0083390190565b60405161148a8061299083390190565b610143806104616000396000f3006080604052600436106100565763ffffffff7c0100000000000000000000000000000000000000000000000000000000600035041663521eb273811461005b5780639c1e03a014610099578063fc0c546a146100ae575b600080fd5b34801561006757600080fd5b506100706100c3565b6040805173ffffffffffffffffffffffffffffffffffffffff9092168252519081900360200190f35b3480156100a557600080fd5b506100706100df565b3480156100ba57600080fd5b506100706100fb565b60005473ffffffffffffffffffffffffffffffffffffffff1681565b60025473ffffffffffffffffffffffffffffffffffffffff1681565b60015473ffffffffffffffffffffffffffffffffffffffff16815600a165627a7a72305820c30817c4b92afedc15592cf036bb1d94030dc90028a767a35738e366579698ff002960806040523480156200001157600080fd5b506040516200185c3803806200185c8339810160405280516020820151910180519091906000908260048211806200004857508181115b8062000052575080155b806200005c575081155b156200006757600080fd5b600092505b84518310156200013b576002600086858151811015156200008957fe5b6020908102909101810151600160a060020a031682528101919091526040016000205460ff1680620000dc57508483815181101515620000c557fe5b90602001906020020151600160a060020a03166000145b15620000e757600080fd5b6001600260008786815181101515620000fc57fe5b602090810291909101810151600160a060020a03168252810191909152604001600020805460ff1916911515919091179055600192909201916200006c565b84516200015090600390602088019062000162565b50505060049190915550620001f69050565b828054828255906000526020600020908101928215620001ba579160200282015b82811115620001ba5782518254600160a060020a031916600160a060020a0390911617825560209092019160019091019062000183565b50620001c8929150620001cc565b5090565b620001f391905b80821115620001c8578054600160a060020a0319168155600101620001d3565b90565b61165680620002066000396000f30060806040526004361061011c5763ffffffff7c0100000000000000000000000000000000000000000000000000000000600035041663025e7c27811461015e578063173825d91461019f57806320ea8d86146101cd5780632f54bf6e146101e55780633411c81c1461022757806354741525146102585780637065cb4814610289578063784547a7146102b75780638b51d13f146102cf5780639ace38c2146102e7578063a0e67e2b146103bc578063a8abe69a14610421578063b5dc40c314610446578063b77bf6001461045e578063ba51a6df14610473578063c01a8c841461048b578063c6427474146104a3578063d74f8edd14610519578063dc8452cd1461052e578063e20056e614610543578063ee22610b14610577575b600034111561015c5760408051348152905133917fe1fffcc4923d04b559f4d29a8bfc6cda04eb5b0d3c460751c2402c5c5cc9109c919081900360200190a25b005b34801561016a57600080fd5b5061017660043561058f565b6040805173ffffffffffffffffffffffffffffffffffffffff9092168252519081900360200190f35b3480156101ab57600080fd5b5061015c73ffffffffffffffffffffffffffffffffffffffff600435166105c4565b3480156101d957600080fd5b5061015c6004356107a3565b3480156101f157600080fd5b5061021373ffffffffffffffffffffffffffffffffffffffff6004351661085d565b604080519115158252519081900360200190f35b34801561023357600080fd5b5061021360043573ffffffffffffffffffffffffffffffffffffffff60243516610872565b34801561026457600080fd5b5061027760043515156024351515610892565b60408051918252519081900360200190f35b34801561029557600080fd5b5061015c73ffffffffffffffffffffffffffffffffffffffff600435166108fe565b3480156102c357600080fd5b50610213600435610a4d565b3480156102db57600080fd5b50610277600435610ade565b3480156102f357600080fd5b506102ff600435610b5a565b604051808573ffffffffffffffffffffffffffffffffffffffff1673ffffffffffffffffffffffffffffffffffffffff1681526020018481526020018060200183151515158152602001828103825284818151815260200191508051906020019080838360005b8381101561037e578181015183820152602001610366565b50505050905090810190601f1680156103ab5780820380516001836020036101000a031916815260200191505b509550505050505060405180910390f35b3480156103c857600080fd5b506103d1610c25565b60408051602080825283518183015283519192839290830191858101910280838360005b8381101561040d5781810151838201526020016103f5565b505050509050019250505060405180910390f35b34801561042d57600080fd5b506103d160043560243560443515156064351515610c95565b34801561045257600080fd5b506103d1600435610dce565b34801561046a57600080fd5b50610277610f7b565b34801561047f57600080fd5b5061015c600435610f81565b34801561049757600080fd5b5061015c600435610ff8565b3480156104af57600080fd5b50604080516020600460443581810135601f810184900484028501840190955284845261027794823573ffffffffffffffffffffffffffffffffffffffff169460248035953695946064949201919081908401838280828437509497506110d09650505050505050565b34801561052557600080fd5b506102776110ef565b34801561053a57600080fd5b506102776110f4565b34801561054f57600080fd5b5061015c73ffffffffffffffffffffffffffffffffffffffff600435811690602435166110fa565b34801561058357600080fd5b5061015c6004356112ec565b600380548290811061059d57fe5b60009182526020909120015473ffffffffffffffffffffffffffffffffffffffff16905081565b60003330146105d257600080fd5b73ffffffffffffffffffffffffffffffffffffffff8216600090815260026020526040902054829060ff16151561060857600080fd5b73ffffffffffffffffffffffffffffffffffffffff83166000908152600260205260408120805460ff1916905591505b60035460001901821015610731578273ffffffffffffffffffffffffffffffffffffffff1660038381548110151561066c57fe5b60009182526020909120015473ffffffffffffffffffffffffffffffffffffffff161415610726576003805460001981019081106106a657fe5b6000918252602090912001546003805473ffffffffffffffffffffffffffffffffffffffff90921691849081106106d957fe5b9060005260206000200160006101000a81548173ffffffffffffffffffffffffffffffffffffffff021916908373ffffffffffffffffffffffffffffffffffffffff160217905550610731565b600190910190610638565b600380546000190190610744908261156e565b50600354600454111561075d5760035461075d90610f81565b60405173ffffffffffffffffffffffffffffffffffffffff8416907f8001553a916ef2f495d26a907cc54d96ed840d7bda71e73194bf5a9df7a76b9090600090a2505050565b3360008181526002602052604090205460ff1615156107c157600080fd5b60008281526001602090815260408083203380855292529091205483919060ff1615156107ed57600080fd5b600084815260208190526040902060030154849060ff161561080e57600080fd5b6000858152600160209081526040808320338085529252808320805460ff191690555187927ff6a317157440607f36269043eb55f1287a5a19ba2216afeab88cd46cbcfb88e991a35050505050565b60026020526000908152604090205460ff1681565b600160209081526000928352604080842090915290825290205460ff1681565b6000805b6005548110156108f7578380156108bf575060008181526020819052604090206003015460ff16155b806108e357508280156108e3575060008181526020819052604090206003015460ff165b156108ef576001820191505b600101610896565b5092915050565b33301461090a57600080fd5b73ffffffffffffffffffffffffffffffffffffffff8116600090815260026020526040902054819060ff161561093f57600080fd5b8173ffffffffffffffffffffffffffffffffffffffff8116151561096257600080fd5b600380549050600101600454600482118061097c57508181115b80610985575080155b8061098e575081155b1561099857600080fd5b73ffffffffffffffffffffffffffffffffffffffff8516600081815260026020526040808220805460ff1916600190811790915560038054918201815583527fc2575a0e9e593c00f959f8c92f12db2869c3395a3b0502d05e2516446f71f85b0180547fffffffffffffffffffffffff00000000000000000000000000000000000000001684179055517ff39e6e1eb0edcf53c221607b54b00cd28f3196fed0a24994dc308b8f611b682d9190a25050505050565b600080805b600354811015610ad75760008481526001602052604081206003805491929184908110610a7b57fe5b600091825260208083209091015473ffffffffffffffffffffffffffffffffffffffff16835282019290925260400190205460ff1615610abc576001820191505b600454821415610acf5760019250610ad7565b600101610a52565b5050919050565b6000805b600354811015610b545760008381526001602052604081206003805491929184908110610b0b57fe5b600091825260208083209091015473ffffffffffffffffffffffffffffffffffffffff16835282019290925260400190205460ff1615610b4c576001820191505b600101610ae2565b50919050565b6000602081815291815260409081902080546001808301546002808501805487516101009582161595909502600019011691909104601f810188900488028401880190965285835273ffffffffffffffffffffffffffffffffffffffff90931695909491929190830182828015610c125780601f10610be757610100808354040283529160200191610c12565b820191906000526020600020905b815481529060010190602001808311610bf557829003601f168201915b5050506003909301549192505060ff1684565b60606003805480602002602001604051908101604052809291908181526020018280548015610c8a57602002820191906000526020600020905b815473ffffffffffffffffffffffffffffffffffffffff168152600190910190602001808311610c5f575b505050505090505b90565b606080600080600554604051908082528060200260200182016040528015610cc7578160200160208202803883390190505b50925060009150600090505b600554811015610d4e57858015610cfc575060008181526020819052604090206003015460ff16155b80610d205750848015610d20575060008181526020819052604090206003015460ff165b15610d4657808383815181101515610d3457fe5b60209081029091010152600191909101905b600101610cd3565b878703604051908082528060200260200182016040528015610d7a578160200160208202803883390190505b5093508790505b86811015610dc3578281815181101515610d9757fe5b9060200190602002015184898303815181101515610db157fe5b60209081029091010152600101610d81565b505050949350505050565b606080600080600380549050604051908082528060200260200182016040528015610e03578160200160208202803883390190505b50925060009150600090505b600354811015610ee75760008581526001602052604081206003805491929184908110610e3857fe5b600091825260208083209091015473ffffffffffffffffffffffffffffffffffffffff16835282019290925260400190205460ff1615610edf576003805482908110610e8057fe5b600091825260209091200154835173ffffffffffffffffffffffffffffffffffffffff90911690849084908110610eb357fe5b73ffffffffffffffffffffffffffffffffffffffff909216602092830290910190910152600191909101905b600101610e0f565b81604051908082528060200260200182016040528015610f11578160200160208202803883390190505b509350600090505b81811015610f73578281815181101515610f2f57fe5b906020019060200201518482815181101515610f4757fe5b73ffffffffffffffffffffffffffffffffffffffff909216602092830290910190910152600101610f19565b505050919050565b60055481565b333014610f8d57600080fd5b600354816004821180610f9f57508181115b80610fa8575080155b80610fb1575081155b15610fbb57600080fd5b60048390556040805184815290517fa3f1ee9126a074d9326c682f561767f710e927faa811f7a99829d49dc421797a9181900360200190a1505050565b3360008181526002602052604090205460ff16151561101657600080fd5b600082815260208190526040902054829073ffffffffffffffffffffffffffffffffffffffff16151561104857600080fd5b60008381526001602090815260408083203380855292529091205484919060ff161561107357600080fd5b6000858152600160208181526040808420338086529252808420805460ff1916909317909255905187927f4a504a94899432a9846e1aa406dceb1bcfd538bb839071d49d1e5e23f5be30ef91a36110c9856112ec565b5050505050565b60006110dd848484611459565b90506110e881610ff8565b9392505050565b600481565b60045481565b600033301461110857600080fd5b73ffffffffffffffffffffffffffffffffffffffff8316600090815260026020526040902054839060ff16151561113e57600080fd5b73ffffffffffffffffffffffffffffffffffffffff8316600090815260026020526040902054839060ff161561117357600080fd5b600092505b600354831015611238578473ffffffffffffffffffffffffffffffffffffffff166003848154811015156111a857fe5b60009182526020909120015473ffffffffffffffffffffffffffffffffffffffff16141561122d57836003848154811015156111e057fe5b9060005260206000200160006101000a81548173ffffffffffffffffffffffffffffffffffffffff021916908373ffffffffffffffffffffffffffffffffffffffff160217905550611238565b600190920191611178565b73ffffffffffffffffffffffffffffffffffffffff808616600081815260026020526040808220805460ff1990811690915593881682528082208054909416600117909355915190917f8001553a916ef2f495d26a907cc54d96ed840d7bda71e73194bf5a9df7a76b9091a260405173ffffffffffffffffffffffffffffffffffffffff8516907ff39e6e1eb0edcf53c221607b54b00cd28f3196fed0a24994dc308b8f611b682d90600090a25050505050565b600081815260208190526040812060030154829060ff161561130d57600080fd5b61131683610a4d565b15611454576000838152602081905260409081902060038101805460ff1916600190811790915581548183015493516002808501805495985073ffffffffffffffffffffffffffffffffffffffff909316959492939192839285926000199183161561010002919091019091160480156113d15780601f106113a6576101008083540402835291602001916113d1565b820191906000526020600020905b8154815290600101906020018083116113b457829003601f168201915b505091505060006040518083038185875af1925050501561141c5760405183907f33e13ecb54c3076d8e8bb8c2881800a4d972b792045ffae98fdf46df365fed7590600090a2611454565b60405183907f526441bb6c1aba3c9a4a6ca1d6545da9c2333c8c48343ef398eb858d72b7923690600090a260038201805460ff191690555b505050565b60008373ffffffffffffffffffffffffffffffffffffffff8116151561147e57600080fd5b6005546040805160808101825273ffffffffffffffffffffffffffffffffffffffff8881168252602080830189815283850189815260006060860181905287815280845295909520845181547fffffffffffffffffffffffff00000000000000000000000000000000000000001694169390931783555160018301559251805194965091939092611516926002850192910190611592565b50606091909101516003909101805460ff191691151591909117905560058054600101905560405182907fc0ba8fe4b176c1714197d43b9cc6bcf797a4a7461c5fe8d0ef6e184ae7601e5190600090a2509392505050565b81548183558181111561145457600083815260209020611454918101908301611610565b828054600181600116156101000203166002900490600052602060002090601f016020900481019282601f106115d357805160ff1916838001178555611600565b82800160010185558215611600579182015b828111156116005782518255916020019190600101906115e5565b5061160c929150611610565b5090565b610c9291905b8082111561160c57600081556001016116165600a165627a7a72305820bc8c91c440ca529984441e4a2ce8ee1a4b2c8e4efb678ece425d19280b66f72d0029608060405234801561001057600080fd5b5060405162000b9038038062000b90833981016040908152815160208084015192840151606085015160808601519386018051909695909501949193909290916100609160039190880190610172565b508351610074906004906020870190610172565b506005805460ff191660ff851617905561009781836401000000006100a1810204565b505050505061020d565b600160a060020a03821615156100b657600080fd5b6002546100d0908264010000000061092e61015982021704565b600255600160a060020a038216600090815260208190526040902054610103908264010000000061092e61015982021704565b600160a060020a0383166000818152602081815260408083209490945583518581529351929391927fddf252ad1be2c89b69c2b068fc378daa952ba7f163c4a11628f55a4df523b3ef9281900390910190a35050565b60008282018381101561016b57600080fd5b9392505050565b828054600181600116156101000203166002900490600052602060002090601f016020900481019282601f106101b357805160ff19168380011785556101e0565b828001600101855582156101e0579182015b828111156101e05782518255916020019190600101906101c5565b506101ec9291506101f0565b5090565b61020a91905b808211156101ec57600081556001016101f6565b90565b610973806200021d6000396000f3006080604052600436106100ae5763ffffffff7c010000000000000000000000000000000000000000000000000000000060003504166306fdde0381146100b3578063095ea7b31461013d57806318160ddd1461018257806323b872dd146101a9578063313ce567146101e0578063395093511461020b57806370a082311461023c57806395d89b411461026a578063a457c2d71461027f578063a9059cbb146102b0578063dd62ed3e146102e1575b600080fd5b3480156100bf57600080fd5b506100c8610315565b6040805160208082528351818301528351919283929083019185019080838360005b838110156101025781810151838201526020016100ea565b50505050905090810190601f16801561012f5780820380516001836020036101000a031916815260200191505b509250505060405180910390f35b34801561014957600080fd5b5061016e73ffffffffffffffffffffffffffffffffffffffff600435166024356103a3565b604080519115158252519081900360200190f35b34801561018e57600080fd5b5061019761043b565b60408051918252519081900360200190f35b3480156101b557600080fd5b5061016e73ffffffffffffffffffffffffffffffffffffffff60043581169060243516604435610441565b3480156101ec57600080fd5b506101f5610611565b6040805160ff9092168252519081900360200190f35b34801561021757600080fd5b5061016e73ffffffffffffffffffffffffffffffffffffffff6004351660243561061a565b34801561024857600080fd5b5061019773ffffffffffffffffffffffffffffffffffffffff600435166106f1565b34801561027657600080fd5b506100c8610719565b34801561028b57600080fd5b5061016e73ffffffffffffffffffffffffffffffffffffffff60043516602435610774565b3480156102bc57600080fd5b5061016e73ffffffffffffffffffffffffffffffffffffffff600435166024356107d9565b3480156102ed57600080fd5b5061019773ffffffffffffffffffffffffffffffffffffffff600435811690602435166108df565b6003805460408051602060026001851615610100026000190190941693909304601f8101849004840282018401909252818152929183018282801561039b5780601f106103705761010080835404028352916020019161039b565b820191906000526020600020905b81548152906001019060200180831161037e57829003601f168201915b505050505081565b600073ffffffffffffffffffffffffffffffffffffffff831615156103c757600080fd5b33600081815260016020908152604080832073ffffffffffffffffffffffffffffffffffffffff881680855290835292819020869055805186815290519293927f8c5be1e5ebec7d5bd14f71427d1e84f3dd0314c0f7b2291e5b200ac8c7c3b925929181900390910190a350600192915050565b60025490565b73ffffffffffffffffffffffffffffffffffffffff831660009081526020819052604081205482111561047357600080fd5b73ffffffffffffffffffffffffffffffffffffffff841660009081526001602090815260408083203384529091529020548211156104b057600080fd5b73ffffffffffffffffffffffffffffffffffffffff831615156104d257600080fd5b73ffffffffffffffffffffffffffffffffffffffff8416600090815260208190526040902054610508908363ffffffff61091716565b73ffffffffffffffffffffffffffffffffffffffff808616600090815260208190526040808220939093559085168152205461054a908363ffffffff61092e16565b73ffffffffffffffffffffffffffffffffffffffff808516600090815260208181526040808320949094559187168152600182528281203382529091522054610599908363ffffffff61091716565b73ffffffffffffffffffffffffffffffffffffffff808616600081815260016020908152604080832033845282529182902094909455805186815290519287169391927fddf252ad1be2c89b69c2b068fc378daa952ba7f163c4a11628f55a4df523b3ef929181900390910190a35060019392505050565b60055460ff1681565b600073ffffffffffffffffffffffffffffffffffffffff8316151561063e57600080fd5b33600090815260016020908152604080832073ffffffffffffffffffffffffffffffffffffffff8716845290915290205461067f908363ffffffff61092e16565b33600081815260016020908152604080832073ffffffffffffffffffffffffffffffffffffffff89168085529083529281902085905580519485525191937f8c5be1e5ebec7d5bd14f71427d1e84f3dd0314c0f7b2291e5b200ac8c7c3b925929081900390910190a350600192915050565b73ffffffffffffffffffffffffffffffffffffffff1660009081526020819052604090205490565b6004805460408051602060026001851615610100026000190190941693909304601f8101849004840282018401909252818152929183018282801561039b5780601f106103705761010080835404028352916020019161039b565b600073ffffffffffffffffffffffffffffffffffffffff8316151561079857600080fd5b33600090815260016020908152604080832073ffffffffffffffffffffffffffffffffffffffff8716845290915290205461067f908363ffffffff61091716565b336000908152602081905260408120548211156107f557600080fd5b73ffffffffffffffffffffffffffffffffffffffff8316151561081757600080fd5b33600090815260208190526040902054610837908363ffffffff61091716565b336000908152602081905260408082209290925573ffffffffffffffffffffffffffffffffffffffff851681522054610876908363ffffffff61092e16565b73ffffffffffffffffffffffffffffffffffffffff8416600081815260208181526040918290209390935580518581529051919233927fddf252ad1be2c89b69c2b068fc378daa952ba7f163c4a11628f55a4df523b3ef9281900390910190a350600192915050565b73ffffffffffffffffffffffffffffffffffffffff918216600090815260016020908152604080832093909416825291909152205490565b6000808383111561092757600080fd5b5050900390565b60008282018381101561094057600080fd5b93925050505600a165627a7a7230582050f8d8aab410caea3651f8aefc26469314ff54d2e637831774d716cd8c005efe002960806040526008805460ff1916905534801561001a57600080fd5b506040516101008061148a83398101604090815281516020830151918301516060840151608085015160a086015160c087015160e090970151949693949293919290919081848989848a8a896000831161007357600080fd5b600160a060020a038216151561008857600080fd5b600160a060020a038116151561009d57600080fd5b60029290925560018054600160a060020a0319908116600160a060020a03938416179091556000805490911692821692909217909155811615156100e057600080fd5b60048054600160a060020a031916600160a060020a03929092169190911790554282101561010d57600080fd5b8181101561011a57600080fd5b6005919091556006556000811161013057600080fd5b6007556000811161014057600080fd5b6101516401000000006101c4810204565b6101596101d3565b600160a060020a03909116815260405190819003602001906000f080158015610186573d6000803e3d6000fd5b50600a8054600160a060020a031916600160a060020a0392909216919091179055600955838211156101b757600080fd5b50505050505050506101e3565b600154600160a060020a031690565b6040516107b880610cd283390190565b610ae0806101f26000396000f3006080604052600436106100fb5763ffffffff7c01000000000000000000000000000000000000000000000000000000006000350416631515bc2b81146101065780632c4e722e1461012f578063355274ea14610156578063401938831461016b5780634042b66f1461018057806347535d7b146101955780634b6753bc146101aa5780634bb278f3146101bf5780634f935945146101d4578063521eb273146101e95780637d3d652214610227578063b3f05b971461023c578063b7a8807c14610251578063bf58390314610266578063bff99c6c1461027b578063bffa55d514610290578063ec8ac4d8146102be578063fc0c546a146102df575b610104336102f4565b005b34801561011257600080fd5b5061011b6103a3565b604080519115158252519081900360200190f35b34801561013b57600080fd5b506101446103ab565b60408051918252519081900360200190f35b34801561016257600080fd5b506101446103b1565b34801561017757600080fd5b506101446103b7565b34801561018c57600080fd5b506101446103bd565b3480156101a157600080fd5b5061011b6103c3565b3480156101b657600080fd5b506101446103de565b3480156101cb57600080fd5b506101046103e4565b3480156101e057600080fd5b5061011b610465565b3480156101f557600080fd5b506101fe610479565b6040805173ffffffffffffffffffffffffffffffffffffffff9092168252519081900360200190f35b34801561023357600080fd5b5061011b610495565b34801561024857600080fd5b5061011b6104a2565b34801561025d57600080fd5b506101446104ab565b34801561027257600080fd5b506101446104b1565b34801561028757600080fd5b506101fe610568565b34801561029c57600080fd5b5061010473ffffffffffffffffffffffffffffffffffffffff60043516610584565b61010473ffffffffffffffffffffffffffffffffffffffff600435166102f4565b3480156102eb57600080fd5b506101fe610638565b3460006103018383610654565b61030a82610688565b600354909150610320908363ffffffff6106a516565b60035561032d83826106c2565b6040805183815260208101839052815173ffffffffffffffffffffffffffffffffffffffff86169233927f6faf93231a456e552dbc9961f58d9713ee4f2e69d15f1975b050ef0911053a7b929081900390910190a361038c8383610684565b6103946106cc565b61039e8383610684565b505050565b600654421190565b60025490565b60075490565b60095490565b60035490565b600060055442101580156103d957506006544211155b905090565b60065490565b60085460ff16156103f457600080fd5b6103fc6103a3565b151561040757600080fd5b61040f61073f565b6040517f9270cc390c096600a1c17c44345a1ba689fafd99d97487b10cfccf86cf73183690600090a1600880547fffffffffffffffffffffffffffffffffffffffffffffffffffffffffffffff00166001179055565b60006007546104726103bd565b1015905090565b60015473ffffffffffffffffffffffffffffffffffffffff1690565b60006009546104726103bd565b60085460ff1690565b60055490565b60006104bb610638565b60048054604080517fdd62ed3e00000000000000000000000000000000000000000000000000000000815273ffffffffffffffffffffffffffffffffffffffff928316938101939093523060248401525192169163dd62ed3e916044808201926020929091908290030181600087803b15801561053757600080fd5b505af115801561054b573d6000803e3d6000fd5b505050506040513d602081101561056157600080fd5b5051905090565b60045473ffffffffffffffffffffffffffffffffffffffff1690565b61058c6104a2565b151561059757600080fd5b61059f610495565b156105a957600080fd5b600a54604080517f51cff8d900000000000000000000000000000000000000000000000000000000815273ffffffffffffffffffffffffffffffffffffffff8481166004830152915191909216916351cff8d991602480830192600092919082900301818387803b15801561061d57600080fd5b505af1158015610631573d6000803e3d6000fd5b5050505050565b60005473ffffffffffffffffffffffffffffffffffffffff1690565b61065e8282610932565b6007546106798261066d6103bd565b9063ffffffff6106a516565b111561068457600080fd5b5050565b600061069f6002548361094f90919063ffffffff16565b92915050565b6000828201838110156106b757600080fd5b8091505b5092915050565b610684828261097d565b600a54604080517ff340fa01000000000000000000000000000000000000000000000000000000008152336004820152905173ffffffffffffffffffffffffffffffffffffffff9092169163f340fa01913491602480830192600092919082900301818588803b15801561061d57600080fd5b610747610495565b1561088d57600a60009054906101000a900473ffffffffffffffffffffffffffffffffffffffff1673ffffffffffffffffffffffffffffffffffffffff166343d726d66040518163ffffffff167c0100000000000000000000000000000000000000000000000000000000028152600401600060405180830381600087803b1580156107d257600080fd5b505af11580156107e6573d6000803e3d6000fd5b50505050600a60009054906101000a900473ffffffffffffffffffffffffffffffffffffffff1673ffffffffffffffffffffffffffffffffffffffff16639af6549a6040518163ffffffff167c0100000000000000000000000000000000000000000000000000000000028152600401600060405180830381600087803b15801561087057600080fd5b505af1158015610884573d6000803e3d6000fd5b5050505061092c565b600a60009054906101000a900473ffffffffffffffffffffffffffffffffffffffff1673ffffffffffffffffffffffffffffffffffffffff16638c52dc416040518163ffffffff167c0100000000000000000000000000000000000000000000000000000000028152600401600060405180830381600087803b15801561091357600080fd5b505af1158015610927573d6000803e3d6000fd5b505050505b6109305b565b61093a6103c3565b151561094557600080fd5b61068482826109c8565b60008083151561096257600091506106bb565b5082820282848281151561097257fe5b04146106b757600080fd5b6004546106849073ffffffffffffffffffffffffffffffffffffffff1683836109a4610638565b73ffffffffffffffffffffffffffffffffffffffff1692919063ffffffff6109f616565b73ffffffffffffffffffffffffffffffffffffffff821615156109ea57600080fd5b80151561068457600080fd5b604080517f23b872dd00000000000000000000000000000000000000000000000000000000815273ffffffffffffffffffffffffffffffffffffffff85811660048301528481166024830152604482018490529151918616916323b872dd916064808201926020929091908290030181600087803b158015610a7757600080fd5b505af1158015610a8b573d6000803e3d6000fd5b505050506040513d6020811015610aa157600080fd5b50511515610aae57600080fd5b505050505600a165627a7a72305820b9299140b4201bd359f85f64db3a9cbc3ab87339be64d7b6ceb867dcb05633f70029608060405234801561001057600080fd5b506040516020806107b8833981016040525160008054600160a060020a03191633179055600160a060020a038116151561004957600080fd5b6002805460ff19600160a060020a03939093166101000261010060a860020a031990911617919091169055610735806100836000396000f3006080604052600436106100ae5763ffffffff7c01000000000000000000000000000000000000000000000000000000006000350416632348238c81146100b357806338af3eed146100e357806343d726d61461012157806351cff8d914610136578063685ca194146101645780638c52dc41146101a65780639af6549a146101bb578063c19d93fb146101d0578063c6dbdf6114610209578063e3a9db1a1461021e578063f340fa011461025e575b600080fd5b3480156100bf57600080fd5b506100e173ffffffffffffffffffffffffffffffffffffffff6004351661027f565b005b3480156100ef57600080fd5b506100f861030c565b6040805173ffffffffffffffffffffffffffffffffffffffff9092168252519081900360200190f35b34801561012d57600080fd5b506100e161032d565b34801561014257600080fd5b506100e173ffffffffffffffffffffffffffffffffffffffff600435166103a5565b34801561017057600080fd5b5061019273ffffffffffffffffffffffffffffffffffffffff600435166103c5565b604080519115158252519081900360200190f35b3480156101b257600080fd5b506100e16103e1565b3480156101c757600080fd5b506100e161045a565b3480156101dc57600080fd5b506101e56104c3565b604051808260028111156101f557fe5b60ff16815260200191505060405180910390f35b34801561021557600080fd5b506100f86104cc565b34801561022a57600080fd5b5061024c73ffffffffffffffffffffffffffffffffffffffff600435166104e8565b60408051918252519081900360200190f35b6100e173ffffffffffffffffffffffffffffffffffffffff60043516610510565b60005473ffffffffffffffffffffffffffffffffffffffff1633146102a357600080fd5b73ffffffffffffffffffffffffffffffffffffffff811615156102c557600080fd5b600080547fffffffffffffffffffffffff00000000000000000000000000000000000000001673ffffffffffffffffffffffffffffffffffffffff92909216919091179055565b600254610100900473ffffffffffffffffffffffffffffffffffffffff1690565b60005473ffffffffffffffffffffffffffffffffffffffff16331461035157600080fd5b60006002805460ff169081111561036457fe5b1461036e57600080fd5b6002805460ff1916811790556040517f1cdde67b72a90f19919ac732a437ac2f7a10fc128d28c2a6e525d89ce5cd9d3a90600090a1565b6103ae816103c5565b15156103b957600080fd5b6103c281610536565b50565b600060016002805460ff16908111156103da57fe5b1492915050565b60005473ffffffffffffffffffffffffffffffffffffffff16331461040557600080fd5b60006002805460ff169081111561041857fe5b1461042257600080fd5b6002805460ff191660011790556040517f599d8e5a83cffb867d051598c4d70e805d59802d8081c1c7d6dffc5b6aca2b8990600090a1565b6002805460ff168181111561046b57fe5b1461047557600080fd5b60025460405173ffffffffffffffffffffffffffffffffffffffff6101009092049190911690303180156108fc02916000818181858888f193505050501580156103c2573d6000803e3d6000fd5b60025460ff1690565b60005473ffffffffffffffffffffffffffffffffffffffff1690565b73ffffffffffffffffffffffffffffffffffffffff1660009081526001602052604090205490565b60006002805460ff169081111561052357fe5b1461052d57600080fd5b6103c28161062f565b6000805473ffffffffffffffffffffffffffffffffffffffff16331461055b57600080fd5b5073ffffffffffffffffffffffffffffffffffffffff8116600090815260016020526040902054303181111561058d57fe5b73ffffffffffffffffffffffffffffffffffffffff82166000818152600160205260408082208290555183156108fc0291849190818181858888f193505050501580156105de573d6000803e3d6000fd5b5060408051828152905173ffffffffffffffffffffffffffffffffffffffff8416917f7084f5476618d8e60b11ef0d7d3f06914655adb8793e28ff7f018d4c76d505d5919081900360200190a25050565b6000805473ffffffffffffffffffffffffffffffffffffffff16331461065457600080fd5b5073ffffffffffffffffffffffffffffffffffffffff8116600090815260016020526040902054349061068d908263ffffffff6106f016565b73ffffffffffffffffffffffffffffffffffffffff8316600081815260016020908152604091829020939093558051848152905191927f2da466a7b24304f47e87fa2e1e5a81b9831ce54fec19055ce277ca2f39ba42c492918290030190a25050565b60008282018381101561070257600080fd5b93925050505600a165627a7a7230582098f13855a4569001a3e6ace260832298feee26f193e3975fb8666bf37c665e720029",
  "source": "pragma solidity ^0.4.18;\n\nimport './TrustFeedWallet.sol';\nimport './TrustFeedToken.sol';\nimport './TrustFeedCrowdsale.sol';\n\n// This is a 'wrapper'. It constructs the token, then the crowdsale.\ncontract TrustFeedCampaign {\n  TrustFeedWallet public wallet;  \n  TrustFeedToken public token;\n  TrustFeedCrowdsale public crowdsale;\n\n  event NewCampaign(\n    address campaignAddress,\n    string campaignId\n  );\n\n  constructor(\n    // The owners of the token\n    address[] _owners,\n    // Token name\n    string _name,\n    // Token symbol\n    string _symbol,\n    // The decimals for token\n    uint8 _decimals,\n    // The initial supply for the token\n    uint256 _initialSupply,\n    // Start time of crowdsale\n    uint256 _openingTime,\n    // End of crowdsale\n    uint256 _closingTime,\n    // Price\n    uint256 _rate,\n    // The hard cap\n    uint256 _cap,\n    // The soft cap\n    uint256 _goal,\n    // The campaign id\n    string _campaignId\n  ) public {\n\n    wallet = new TrustFeedWallet(\n      _owners,\n      2);\n\n    // Create the token\n    token = new TrustFeedToken(\n      _name,\n      _symbol,\n      _decimals,\n      _initialSupply,\n      this);\n\n    // Create the crowdsale\n    crowdsale = new TrustFeedCrowdsale(\n      _openingTime,\n      _closingTime,\n      _rate,\n      wallet,\n      _cap,\n      token,\n      _goal,\n      this);\n\n    // TODO: Should these tokens be held by a different wallet?\n    token.approve(crowdsale, _initialSupply);\n\n    emit NewCampaign(this, _campaignId);\n  }\n}\n",
  "compiler": {
    "name": "solc",
    "version": "0.4.24+commit.e67f0147.Emscripten.clang"
  },
  "schemaVersion": "2.0.1",
  "updatedAt": "2018-10-11T07:52:23.588Z"
}